:020000040800F2
:1000000000280020090B0008410A0008470A0008E0
:100010004D0A0008530A0008590A000800000000B1
:100020000000000000000000000000005F0A00085F
:100030006B0A000800000000770A0008830A000825
:10004000510B0008510B0008510B0008510B000820
:10005000510B0008510B0008510B0008510B000810
:10006000510B0008510B0008510B0008510B000800
:10007000510B0008510B0008510B0008510B0008F0
:10008000510B0008510B0008510B0008510B0008E0
:10009000510B0008510B0008510B0008510B0008D0
:1000A000510B0008510B0008510B0008510B0008C0
:1000B000510B0008510B000800000000510B000814
:1000C000510B00080000000000000000510B000868
:1000D00000000000510B0008510B00080000000058
:1000E000510B0008510B0008510B000800000000E4
:1000F0000000000000000000000000000000000000
:0C01000000000000000000005FF808F1A3
:10010C0010B5054C237833B9044B13B10448AFF345
:10011C0000800123237010BD70000020000000003F
:10012C001C23000808B5034B1BB103490348AFF36C
:10013C00008008BD00000000740000201C23000893
:10014C0090B597B000AF00F0FFFC00F061FA00F042
:10015C009BFAD04B07F114040FCB84E80F00242337
:10016C0087F857300E2000F0A9FB0021002000F08A
:10017C00CEFBC94800F0F5FB0121002000F0C7FBC5
:10018C00C64800F0EEFB41F2883000F03FFD00F075
:10019C00FDFB002387F8563000237B627B6AFB64EF
:1001AC00FB6C87F84B300A237B6462E00A2000F07A
:1001BC002DFD01227B6C9A40B94B1A6106233B64DE
:1001CC0049E0B74B9B6801213A6C01FA02F21340EB
:1001DC00002B33D097F856303D2B22D100F0D6FBB4
:1001EC00242387F857300023FB630DE007F10C0242
:1001FC00FB6B134400221A703A1DFB6B1344002254
:10020C001A70FB6B0133FB63FB6B082BEEDD0023D9
:10021C0087F856300023FB64FB6C7B627B6A87F8A3
:10022C004B303B6C9A1F7B6C0A3B920007F15801D8
:10023C000A441344443B1B7887F8573000BF984B53
:10024C009B6801213A6C01FA02F21340002BF6D1A3
:10025C003B6C01333B643B6C092BB2DD0A2000F094
:10026C00D5FC01227B6C9A408D4B5A617B6C01331F
:10027C007B647B6C0D2B99DD97F85730242B92D037
:10028C0097F857302A3B392B00F2B78101A252F86C
:10029C0023F000BFF30300087704000807060008EA
:1002AC003504000807060008B1030008890300089C
:1002BC0089030008890300088903000889030008E2
:1002CC0089030008890300088903000889030008D2
:1002DC00890300080706000807060008070600083F
:1002EC00CB040008070600080706000807060008EC
:1002FC00070600080706000807060008070600089E
:10030C00070600080706000807060008070600088D
:10031C00070600080706000807060008070600087D
:10032C00070600080706000807060008070600086D
:10033C00070600080706000807060008070600085D
:10034C00070600080706000807060008070600084D
:10035C00070600080706000807060008070600083D
:10036C00070600080706000807060008070600082D
:10037C000706000807060008BF05000897F8573065
:10038C00184600F06BFA97F84B3007F158021344FB
:10039C0097F8572003F84C2C97F84B30013387F81B
:1003AC004B302AE197F85730184600F057FA2F23B4
:1003BC0087F8563007F10C03184601F0A9FAF864D7
:1003CC00002387F84B300023BB6308E007F10C02D5
:1003DC00BB6B134400221A70BB6B0133BB63BB6B4A
:1003EC00052BF3DD09E197F85730184600F036FA83
:1003FC002A2387F8563007F10C03184601F088FAC7
:10040C00F864002387F84B3000237B6308E007F186
:10041C000C027B6B134400221A707B6B01337B63E1
:10042C007B6B052BF3DDE8E097F85730184600F0AE
:10043C0015FA2D2387F8563007F10C03184601F0F6
:10044C0067FAF864002387F84B3000233B6308E01D
:10045C0007F10C023B6B134400221A703B6B013307
:10046C003B633B6B052BF3DDC7E097F85730184621
:10047C0000F0F4F92B2387F8563007F10C031846DB
:10048C0001F046FAF864002387F84B300023FB6236
:10049C0011E000BF6823000834230008482300083B
:1004AC000008014007F10C02FB6A134400221A7089
:1004BC00FB6A0133FB62FB6A052BF3DD9DE007F160
:1004CC000C03184601F024FA786297F856302B2B5F
:1004DC0003D1FA6C7B6A13443B6597F856302D2B8D
:1004EC0003D1FA6C7B6AD31A3B6597F856302A2BEA
:1004FC0004D1FB6C7A6A02FB03F33B6597F8563028
:10050C002F2B44D17B6A002B10D101210A2000F043
:10051C00FEF93B1D3B49184601F030FA3B1D1846CD
:10052C0000F01FFA3D2387F8563066E0FA6C7B6AC0
:10053C0092FBF3F33B6501210A2000F0E8F93B1D27
:10054C003A6D3149184601F019FA3B1D184600F076
:10055C0008FAFB6C7A6A93FBF2F2796A01FB02F2FD
:10056C009B1A4FF47A7202FB03F27B6A92FBF3F351
:10057C003B653B1D3A6D2549184601F0FFF93B1DC3
:10058C00184600F0EEF93D2387F8563035E001218E
:10059C000A2000F0BCF93B1D3A6D1B49184601F0CE
:1005AC00EDF93B1D184600F0DCF93D2387F8563079
:1005BC0023E000F0EBF9242387F857300023BB62CB
:1005CC000DE007F10C02BB6A134400221A703A1DAD
:1005DC00BB6A134400221A70BB6A0133BB62BB6A4C
:1005EC00082BEEDD002387F856300023FB64FB6CF0
:1005FC007B627B6A87F84B3000BF242387F8573027
:10060C00D1E500BF582300086023000864230008CC
:10061C0080B590B000AF07F11803282200211846CE
:10062C0001F0A4F93B1D00221A605A609A60DA604E
:10063C001A610223BB610123BB621023FB620023FE
:10064C007B6307F11803184600F07AFD0346002B74
:10065C0001D000F0B7F90F237B600023BB600023AF
:10066C00FB6000233B6100237B613B1D002118468E
:10067C0000F0E6FF0346002B01D000F0A3F900BF09
:10068C004037BD4680BD000080B586B000AF07F195
:10069C00080300221A605A609A60DA60184B9B6952
:1006AC00174A43F004039361154B9B6903F0040351
:1006BC007B607B68002243F63F41124800F028FD26
:1006CC0043F63F43BB600123FB6000233B610223E5
:1006DC007B6107F1080319460A4800F09FFB4FF4B1
:1006EC007073BB600023FB6000233B6107F10803C0
:1006FC001946044800F092FB00BF1837BD4680BD78
:10070C00001002400008014080B483B000AF072302
:10071C007B6000BF7B685A1E7A60002BFAD100BF49
:10072C0000BF0C37BD4680BC704780B582B000AFAF
:10073C00786001E0FFF7E8FF7B685A1E7A60002BB7
:10074C00F8D100BF00BF0837BD4680BD80B483B070
:10075C0000AF0346FB71FB7903F00103002B03D1BF
:10076C00174B04225A6102E0154B04221A61FB79E3
:10077C0003F00203002B03D1114B08225A6102E053
:10078C000F4B08221A61FB7903F00403002B03D1F1
:10079C000B4B10225A6102E0094B10221A61FB79B3
:1007AC0003F00803002B03D1054B20225A6102E011
:1007BC00034B20221A6100BF0C37BD4680BC70472A
:1007CC000008014080B582B000AF0346FB71FB7995
:1007DC001846FFF7BBFF094B02225A61074B012257
:1007EC001A610520FFF7A1FF044B01225A61052075
:1007FC0000F00CFA00BF0837BD4680BD0008014070
:10080C0080B582B000AF0346FB71FB791B09DBB2EC
:10081C001846FFF79BFF104B02225A610E4B012228
:10082C001A610520FFF781FF0B4B01225A61FB79FE
:10083C001846FFF78BFF084B01221A610520FFF7C2
:10084C0074FF054B01225A61052000F0DFF900BF4F
:10085C000837BD4680BD00BF0008014080B582B09E
:10086C0000AF0346FB71FB791B09DBB21846FFF79F
:10087C006DFF114B02221A610F4B01221A610520E8
:10088C00FFF753FF0C4B01225A61052000F0BEF913
:10089C00FB791846FFF75AFF074B01221A61052016
:1008AC00FFF743FF044B01225A61052000F0AEF91B
:1008BC0000BF0837BD4680BD0008014080B582B03E
:1008CC0000AF0346FB710320FFF77CFF0320FFF70B
:1008DC0079FF0320FFF776FF0220FFF773FF282034
:1008EC00FFF78EFFFB791846FFF78AFF0620FFF70C
:1008FC0087FF0120FFF784FF00BF0837BD4680BD8E
:10090C0080B500AF0120FFF77BFF00BF80BD80B535
:10091C0084B000AF03460A46FB711346BB718023BB
:10092C00FB73BB79002B02D1FB79803BFB73BB794A
:10093C00012B02D1FB79403BFB73BB79022B02D11B
:10094C00FB79703BFB73BB79032B02D1FB79303BFA
:10095C00FB73FB7B1846FFF753FF00BF1037BD46F8
:10096C0080BD80B582B000AF786006E07B685A1C11
:10097C007A601B781846FFF771FF7B681B78002B99
:10098C00F4D100BF00BF0837BD4680BD80B500AFB5
:10099C00FFF7B6FF00210020FFF7B9FF0748FFF76C
:1009AC00E0FF01210020FFF7B2FF0548FFF7D9FF58
:1009BC0000210520FFF7ABFF00BF80BD78230008A6
:1009CC008023000880B400AF72B600BFFEE70000C1
:1009DC0080B485B000AF154B9B69144A43F00103FA
:1009EC009361124B9B6903F00103BB60BB680F4B17
:1009FC00DB690E4A43F08053D3610C4BDB6903F087
:100A0C0080537B607B680A4B5B68FB60FB6823F060
:100A1C00E063FB60FB6843F08063FB60044AFB68A7
:100A2C00536000BF1437BD4680BC704700100240B5
:100A3C000000014080B400AFFEE780B400AFFEE7D9
:100A4C0080B400AFFEE780B400AFFEE780B400AF27
:100A5C00FEE780B400AF00BFBD4680BC704780B4D9
:100A6C0000AF00BFBD4680BC704780B400AF00BF74
:100A7C00BD4680BC704780B500AF00F0ABF800BF3E
:100A8C0080BD000080B586B000AF7860144A154B6D
:100A9C00D31A7B617B693B61134B1B68002B02D122
:100AAC00114B124A1A60104B1A687B6813443A694E
:100ABC009A4207D200F030FF03460C221A604FF026
:100ACC00FF3309E0084B1B68FB60074B1A687B6817
:100ADC001344054A1360FB6818461837BD4680BDA1
:100AEC0000280020000400008C000020B000002032
:100AFC0080B400AF00BFBD4680BC7047002103E04E
:100B0C000B4B5B58435004310A480B4B42189A422A
:100B1C00F6D30A4A02E0002342F8043B084B9A42FF
:100B2C00F9D3FFF7E5FF00F0FDFEFFF709FB704777
:100B3C00E824000800000020700000207000002055
:100B4C00AC000020FEE7000080B500AF084B1B682E
:100B5C00074A43F010031360032000F02BF9002028
:100B6C0000F008F8FFF734FF0023184680BD00BFE3
:100B7C000020024080B582B000AF7860124B1A683A
:100B8C00124B1B7819464FF47A73B3FBF1F3B2FB9B
:100B9C00F3F3184600F035F90346002B01D001237E
:100BAC000EE07B680F2B0AD8002279684FF0FF30DB
:100BBC0000F00BF9064A7B681360002300E0012368
:100BCC0018460837BD4680BD0000002008000020F4
:100BDC000400002080B400AF054B1B781A46054B6F
:100BEC001B681344034A136000BFBD4680BC7047AA
:100BFC00080000209800002080B400AF024B1B6856
:100C0C001846BD4680BC70479800002080B584B063
:100C1C0000AF7860FFF7F0FFB8607B68FB60FB68A3
:100C2C00B3F1FF3F05D00A4B1B781A46FB681344FF
:100C3C00FB6000BFFFF7E0FF0246BB68D31AFA68FF
:100C4C009A42F7D800BF00BF1037BD4680BD00BF29
:100C5C000800002080B485B000AF78607B6803F09A
:100C6C000703FB600C4BDB68BB60BA684FF6FF03F5
:100C7C001340BB60FB681A02BB68134343F0BF63AD
:100C8C0043F40033BB60044ABB68D36000BF143725
:100C9C00BD4680BC704700BF00ED00E080B400AFE3
:100CAC00044BDB681B0A03F007031846BD4680BCE7
:100CBC00704700BF00ED00E080B483B000AF034686
:100CCC003960FB7197F90730002B0ADB3B68DAB20D
:100CDC000C4997F907301201D2B20B4483F8002368
:100CEC000AE03B68DAB20849FB7903F00F03043BD6
:100CFC001201D2B20B441A7600BF0C37BD4680BC31
:100D0C00704700BF00E100E000ED00E080B489B066
:100D1C0000AFF860B9607A60FB6803F00703FB6111
:100D2C00FB69C3F10703042B28BF0423BB61FB69D8
:100D3C000433062B02D9FB69033B00E000237B61E3
:100D4C004FF0FF32BB6902FA03F3DA43BB681A4077
:100D5C007B699A404FF0FF317B6901FA03F3D94369
:100D6C007B680B40134318462437BD4680BC704744
:100D7C0080B582B000AF78607B68013BB3F1807FB7
:100D8C0001D301230FE00A4A7B68013B53600F211A
:100D9C004FF0FF30FFF790FF054B00229A60044B99
:100DAC0007221A60002318460837BD4680BD00BFD5
:100DBC0010E000E080B582B000AF78607868FFF793
:100DCC0049FF00BF0837BD4680BD80B586B000AF77
:100DDC000346B9607A60FB7300237B61FFF75EFF0B
:100DEC0078617A68B9687869FFF790FF024697F9DD
:100DFC000F3011461846FFF75FFF00BF1837BD468E
:100E0C0080BD80B582B000AF78607868FFF7B0FF26
:100E1C00034618460837BD4680BD000080B48BB031
:100E2C0000AF7860396000237B6200233B6248E1AD
:100E3C0001227B6A02FA03F3FB613B681B68FA69C7
:100E4C001340BB61BA69FB699A4240F037813B6839
:100E5C005B68A34A93425ED0A14A934275D8A14ADB
:100E6C00934258D09F4A93426FD89F4A934252D094
:100E7C009D4A934269D89D4A93424CD09B4A9342D7
:100E8C0063D89B4A934246D0994A93425DD8122B21
:100E9C002AD8122B59D801A252F823F0230F00089C
:100EAC00FD0E00080F0F0008510F0008570F000827
:100EBC00570F0008570F0008570F0008570F00086E
:100ECC00570F0008570F0008570F0008570F00085E
:100EDC00570F0008570F0008570F0008570F00084E
:100EEC00050F0008190F0008824A934213D02CE01A
:100EFC003B68DB683B6229E03B68DB6804333B62A0
:100F0C0024E03B68DB6808333B621FE03B68DB682E
:100F1C000C333B621AE03B689B68002B02D1042324
:100F2C003B6213E03B689B68012B05D108233B62B5
:100F3C007B68FA691A6109E008233B627B68FA69ED
:100F4C005A6103E000233B6200E000BFBB69FF2B4A
:100F5C0001D87B6801E07B6804337B61BB69FF2BA4
:100F6C0002D87B6A9B0002E07B6A083B9B003B61DA
:100F7C007B691A680F213B6901FA03F3DB431A40C2
:100F8C00396A3B6901FA03F31A437B691A603B68BF
:100F9C005B6803F08053002B00F09080564B9B69EC
:100FAC00554A43F001039361534B9B6903F00103D2
:100FBC00BB60BB68514A7B6A9B08023352F82330F2
:100FCC00FB607B6A03F003039B000F2202FA03F31E
:100FDC00DB43FA681340FB607B68494A93420DD0AF
:100FEC007B68484A934207D07B68474A934201D1B9
:100FFC00022304E0032302E0012300E000237A6AC9
:10100C0002F0030292009340FA681343FB603B49E1
:10101C007B6A9B080233FA6841F823203B685B68C3
:10102C0003F48033002B06D0384B1A683749BB6960
:10103C0013430B6006E0354B1A68BB69DB4333493D
:10104C0013400B603B685B6803F40033002B06D045
:10105C002E4B5A682D49BB6913434B6006E02B4B52
:10106C005A68BB69DB43294913404B603B685B689A
:10107C0003F48013002B06D0244B9A682349BB69D8
:10108C0013438B6006E0214B9A68BB69DB431F4915
:10109C0013408B603B685B6803F40013002B06D095
:1010AC001A4BDA681949BB691343CB6006E0174B3E
:1010BC00DA68BB69DB4315491340CB607B6A0133AB
:1010CC007B623B681A687B6A22FA03F3002B7FF47D
:1010DC00AFAE00BF00BF2C37BD4680BC704700BF11
:1010EC00000032100000311000002210000021100E
:1010FC00000012100000111000100240000001400E
:10110C0000080140000C01400010014000040140A7
:10111C0080B483B000AF78600B467B8013467B7045
:10112C007B78002B03D07A887B681A6103E07B887C
:10113C001A047B681A6100BF0C37BD4680BC70472F
:10114C0080B586B000AF78607B68002B01D101239D
:10115C006CE27B681B6803F00103002B00F08780B6
:10116C00924B5B6803F00C03042B0CD08F4B5B6829
:10117C0003F00C03082B12D18C4B5B6803F4803307
:10118C00B3F5803F0BD1894B1B6803F40033002B64
:10119C006CD07B685B68002B68D1012346E27B68CE
:1011AC005B68B3F5803F06D1804B1B687F4A43F4E4
:1011BC00803313602EE07B685B68002B0CD17B4B7B
:1011CC001B687A4A23F480331360784B1B68774A88
:1011DC0023F4802313601DE07B685B68B3F5A02FBC
:1011EC000CD1724B1B68714A43F4802313606F4B14
:1011FC001B686E4A43F4803313600BE06B4B1B6827
:10120C006A4A23F480331360684B1B68674A23F4E3
:10121C00802313607B685B68002B13D0FFF7ECFC1A
:10122C00386108E0FFF7E8FC02463B69D31A642BEF
:10123C0001D90323FAE15D4B1B6803F40033002B47
:10124C00F0D014E0FFF7D8FC386108E0FFF7D4FCCD
:10125C0002463B69D31A642B01D90323E6E1534BB5
:10126C001B6803F40033002BF0D100E000BF7B6857
:10127C001B6803F00203002B63D04C4B5B6803F03C
:10128C000C03002B0BD0494B5B6803F00C03082BB1
:10129C001CD1464B5B6803F48033002B16D1434BB7
:1012AC001B6803F00203002B05D07B681B69012B24
:1012BC0001D00123BAE13D4B1B6823F0F8027B6897
:1012CC005B69DB00394913430B603AE07B681B69AF
:1012DC00002B20D0364B01221A60FFF78DFC3861B1
:1012EC0008E0FFF789FC02463B69D31A022B01D9AF
:1012FC0003239BE12D4B1B6803F00203002BF0D062
:10130C002A4B1B6823F0F8027B685B69DB002749DA
:10131C0013430B6015E0264B00221A60FFF76CFCA0
:10132C00386108E0FFF768FC02463B69D31A022BD0
:10133C0001D903237AE11D4B1B6803F00203002B38
:10134C00F0D17B681B6803F00803002B3AD07B6854
:10135C009B69002B19D0174B01221A60FFF74CFC2C
:10136C00386108E0FFF748FC02463B69D31A022BB0
:10137C0001D903235AE10D4B5B6A03F00203002BE6
:10138C00F0D0012000F0A6FA1CE00A4B00221A60F3
:10139C00FFF732FC38610FE0FFF72EFC02463B6989
:1013AC00D31A022B08D9032340E100BF00100240DE
:1013BC0000004242800442429E4B5B6A03F00203EF
:1013CC00002BE9D17B681B6803F00403002B00F0B1
:1013DC00A6800023FB75974BDB6903F08053002B31
:1013EC000DD1944BDB69934A43F08053D361914BFD
:1013FC00DB6903F08053BB60BB680123FB758E4B2C
:10140C001B6803F48073002B18D18B4B1B688A4A22
:10141C0043F480731360FFF7EFFB386108E0FFF7CC
:10142C00EBFB02463B69D31A642B01D90323FDE085
:10143C00814B1B6803F48073002BF0D07B68DB6856
:10144C00012B06D17B4B1B6A7A4A43F001031362D2
:10145C002DE07B68DB68002B0CD1764B1B6A754A40
:10146C0023F001031362734B1B6A724A23F00403CB
:10147C0013621CE07B68DB68052B0CD16D4B1B6A7F
:10148C006C4A43F0040313626A4B1B6A694A43F0CB
:10149C00010313620BE0674B1B6A664A23F00103DE
:1014AC001362644B1B6A634A23F0040313627B6868
:1014BC00DB68002B15D0FFF79FFB38610AE0FFF7C4
:1014CC009BFB02463B69D31A41F28832934201D905
:1014DC000323ABE0574B1B6A03F00203002BEED047
:1014EC0014E0FFF789FB38610AE0FFF785FB024641
:1014FC003B69D31A41F28832934201D9032395E018
:10150C004C4B1B6A03F00203002BEED1FB7D012B2D
:10151C0005D1484BDB69474A23F08053D3617B6884
:10152C00DB69002B00F08180424B5B6803F00C03FD
:10153C00082B61D07B68DB69022B46D13F4B002224
:10154C001A60FFF759FB386108E0FFF755FB0246BC
:10155C003B69D31A022B01D9032367E0354B1B6877
:10156C0003F00073002BF0D17B681B6AB3F5803F4E
:10157C0008D1304B5B6823F400327B689B682D49A3
:10158C0013434B602B4B5B6823F474127B68196A12
:10159C007B685B6A0B43274913434B60274B012243
:1015AC001A60FFF729FB386108E0FFF725FB0246BC
:1015BC003B69D31A022B01D9032337E01D4B1B685F
:1015CC0003F00073002BF0D02FE01C4B00221A60AC
:1015DC00FFF712FB386108E0FFF70EFB02463B6990
:1015EC00D31A022B01D9032320E0124B1B6803F002
:1015FC000073002BF0D118E07B68DB69012B01D163
:10160C00012313E00B4B5B68FB60FB6803F4803237
:10161C007B681B6A9A4206D1FB6803F470127B68E4
:10162C005B6A9A4201D0012300E000231846183768
:10163C00BD4680BD00100240007000406000424278
:10164C0080B584B000AF786039607B68002B01D125
:10165C000123D0E06A4B1B6803F007033A689A42F7
:10166C0010D9674B1B6823F0070265493B6813438D
:10167C000B60634B1B6803F007033A689A4201D076
:10168C000123B8E07B681B6803F00203002B20D019
:10169C007B681B6803F00403002B05D0594B5B6877
:1016AC00584A43F4E06353607B681B6803F00803FB
:1016BC00002B05D0534B5B68524A43F46053536084
:1016CC00504B5B6823F0F0027B689B684D491343D9
:1016DC004B607B681B6803F00103002B40D07B68D8
:1016EC005B68012B07D1474B1B6803F40033002BBD
:1016FC0015D101237FE07B685B68022B07D1414B3E
:10170C001B6803F00073002B09D1012373E03D4BE0
:10171C001B6803F00203002B01D101236BE0394B52
:10172C005B6823F003027B685B68364913434B60AC
:10173C00FFF762FAF8600AE0FFF75EFA0246FB6810
:10174C00D31A41F28832934201D9032353E02D4B33
:10175C005B6803F00C027B685B689B009A42EBD1E0
:10176C00274B1B6803F007033A689A4210D2244BAC
:10177C001B6823F0070222493B6813430B60204B84
:10178C001B6803F007033A689A4201D0012332E048
:10179C007B681B6803F00403002B08D0194B5B68B3
:1017AC0023F4E0627B68DB68164913434B607B686B
:1017BC001B6803F00803002B09D0124B5B6823F461
:1017CC0060527B681B69DB000E4913434B6000F0D1
:1017DC0021F802460B4B5B681B0903F00F030A4907
:1017EC00CB5C22FA03F3094A1360094B1B681846B9
:1017FC00FFF7C0F9002318461037BD4680BD00BF67
:10180C0000200240001002409C2300080000002031
:10181C000400002090B48AB000AF2A4B3C1D0FCBC3
:10182C0084E80F0040F201233B800023FB6100237E
:10183C00BB6100237B6200237B6100233B62224B54
:10184C005B68FB61FB6903F00C03042B02D0082BD3
:10185C0003D02DE01D4B3B622DE0FB699B0C03F08C
:10186C000F0307F12802134413F8243C7B61FB6936
:10187C0003F48033002B13D0134B5B685B0C03F029
:10188C00010307F12802134413F8283CBB617B6960
:10189C000E4A02FB03F2BB69B2FBF3F37B6204E07A
:1018AC007B690B4A02FB03F37B627B6A3B6202E0BF
:1018BC00064B3B6200BF3B6A18462837BD4690BCBE
:1018CC00704700BF8C2300080010024000127A0001
:1018DC0000093D0080B485B000AF78600A4B1B68EE
:1018EC000A4AA2FB03235B0A7A6802FB03F3FB6040
:1018FC0000BFFB685A1EFA60002BF9D100BF00BF75
:10190C001437BD4680BC704700000020D34D6210D8
:10191C000A22002100F0D8B8014B1868704700BFAC
:10192C000C00002070B500260C4D0D4C641BA4104F
:10193C00A64209D100F0ECFC00260A4D0A4C641BAF
:10194C00A410A64205D170BD55F8043B984701364A
:10195C00EEE755F8043B98470136F2E7E02400081F
:10196C00E0240008E0240008E424000803460244B4
:10197C00934200D1704703F8011BF9E70EB46FF0E6
:10198C00004100B59CB01DAB0290069007910491EC
:10199C000848094953F8042B0591006802A90193E2
:1019AC0000F0F8F80022029B1A701CB05DF804EBF2
:1019BC0003B070470C0000200802FFFF012B2DE93B
:1019CC00F047864601D0242B06D9FFF7A5FF162336
:1019DC0003600020BDE8F0878C463A4E60461CF848
:1019EC00014BA55D15F00805F8D12D2C33D14FF026
:1019FC0001089CF8004000F1020C002B5DD0102B6C
:101A0C000CD1302C0AD19CF8000000F0DF005828D3
:101A1C004ED110239CF801400CF1020C002508F16A
:101A2C000047013FB7FBF3F9284603FB197AA4F1F1
:101A3C003006092E18D83446A34224DD002D1FDBB6
:101A4C0081451DD301D1A2451ADB012500FB0340C2
:101A5C001CF8014BEBE72B2C08BF9CF80040A84668
:101A6C0008BF00F1020CC8E7A4F14106192E01D8F9
:101A7C00373CE1E7A4F16106192E04D8573CDBE7AB
:101A8C004FF0FF35E4E7002D08DA22233846CEF874
:101A9C000030002A9ED00CF1FF3107E0B8F1000FA6
:101AAC0000D04042002A95D0002DF4D1116091E76E
:101ABC003024002BB2D10823B0E7302CA3D00A235A
:101ACC00ACE700BFAD23000813460A4601460248A6
:101ADC000068FFF773BF00BF0C0000202DE9F04732
:101AEC008E6882469E420C4690461F4638D88A899C
:101AFC0012F4906F32D0256809690133A5EB010906
:101B0C0065694B4405EB450505EBD5756D109D429C
:101B1C0038BF1D46530531D5294600F053FB064608
:101B2C0050B90C234FF0FF30CAF80030A38943F0B2
:101B3C004003A381BDE8F0874A46216900F0CEFA44
:101B4C00A38923F4906343F08003A38126614E4460
:101B5C0026603E466561A5EB0905A560BE4200D92D
:101B6C003E4632464146206800F0C6FAA368226819
:101B7C009B1B32440020A3602260DBE72A4600F066
:101B8C007BFB06460028E1D15046216900F0CEFAD5
:101B9C00C7E700002DE9F04F98468B8907461B06D6
:101BAC000D4614469DB00ED50B6963B9402100F06B
:101BBC0009FB2860286120B90C233B604FF0FF30F3
:101BCC00D1E040236B610023099320238DF8293049
:101BDC0030234FF00109CDF80C80DFF8A4818DF88B
:101BEC002A3023469A4613F8012B0AB1252AF9D13B
:101BFC00BAEB040B0BD05B46224629463846FFF75E
:101C0C006DFF013000F0AA80099A5A4409929AF8A3
:101C1C000030002B00F0A28000234FF0FF32CDE902
:101C2C0005230AF1010A049307938DF853301A9394
:101C3C005446052214F8011B514800F041FA049A4D
:101C4C00D8B9D00644BF20238DF85330110744BFB8
:101C5C002B238DF853309AF800302A2B15D054468C
:101C6C0000204FF00A0C079A214611F8013B303B3B
:101C7C00092B4ED9B0B1079214E0A0EB080309FA76
:101C8C0003F31343A2460493D2E7039B191D1B686D
:101C9C000391002BBBBF5B4242F0020207930793F8
:101CAC00B8BF049223782E2B0CD163782A2B35D114
:101CBC00039B02341A1D1B680392002BB8BF4FF014
:101CCC00FF330593DFF8C8A003225046217800F0BB
:101CDC00F7F940B14023A0EB0A0003FA00F0049B93
:101CEC0001340343049314F8011B062225488DF894
:101CFC00281000F0E5F9002838D0234B1BBB039BC0
:101D0C00073323F0070308330393099B33440993E8
:101D1C0067E70C4601200CFB0232A5E700234FF0CD
:101D2C000A0C194601340593204610F8012B303A61
:101D3C00092A03D9002BC5D00591C3E7044601231A
:101D4C000CFB0121F0E703AB00932A4638460F4BFE
:101D5C0004A9AFF30080421C0646D6D1AB895B06C2
:101D6C003FF52CAF09981DB0BDE8F08F03AB009385
:101D7C002A463846054B04A900F07CF8EBE700BF77
:101D8C00AD240008B724000800000000E91A000880
:101D9C00B32400082DE9F047164699468A680B696A
:101DAC0007469342B8BF1346336091F843200C4664
:101DBC00DDF820800AB1013333602368990642BFF5
:101DCC00336802333360256815F0060506D104F13B
:101DDC00190AE36832689B1AAB4228DC94F843205A
:101DEC00131E226818BF012392062DD4494638468B
:101DFC0004F14302C047013020D02368E56803F0AA
:101E0C000603042B18BF002532684FF00006A368A8
:101E1C0008BFAD1A226908BF25EAE5759342C4BF15
:101E2C009B1AED181A34B5421AD1002008E0012390
:101E3C00524649463846C047013003D14FF0FF3077
:101E4C00BDE8F0870135C4E73020E11881F8430084
:101E5C005A1C94F845102244023382F84310C5E70B
:101E6C000123224649463846C0470130E6D00136A8
:101E7C00D9E700002DE9FF470C46277E9146782FC5
:101E8C0080469A460C9904F1430207D8622F0AD86F
:101E9C00002F00F0D980582F00F0A48004F14206E6
:101EAC0084F842703AE0A7F16303152BF6D801A031
:101EBC0050F823F0191F00082D1F0008A91E000858
:101ECC00A91E0008A91E0008A91E00082D1F000845
:101EDC00A91E0008A91E0008A91E0008A91E0008BA
:101EEC003B2000085D1F00081D200008A91E0008EB
:101EFC00A91E00085D200008A91E00085D1F00082F
:101F0C00A91E0008A91E0008252000080B6804F172
:101F1C0042061A1D1B680A6084F842300123A4E0B3
:101F2C00256808682E0600F104030AD505680B60C5
:101F3C00002D03DA2D236D4284F843300A235E48CA
:101F4C0019E015F0400F05680B6018BF2DB2EFE7D4
:101F5C000B682568181D0860280601D51D6802E06D
:101F6C006906FBD51D886F2F0CBF08230A23524826
:101F7C00002184F843106668002EA8BF2168A66073
:101F8C00A4BF21F0040121600DB9002E4DD01646DE
:101F9C00B5FBF3F103FB1157C75D06F8017D2F4626
:101FAC00BB420D46F4D9082B0BD12368DF0708D5AB
:101FBC00236961689942DEBF302306F8013C06F1C3
:101FCC00FF36921B22614B4621464046CDF800A0BD
:101FDC0003AAFFF7DFFE01304CD14FF0FF3004B005
:101FEC00BDE8F087344884F845700E68236856F8CD
:101FFC00045B1F060E6014D5D90744BF43F02003C1
:10200C0023601DB9236823F0200323601023AFE75E
:10201C00236843F0200323607823284884F8453054
:10202C00E3E75E0648BFADB2E6E71646BBE70B68D2
:10203C0026681D1D60690D6035061B6801D518608A
:10204C0002E07106FBD51880002316462361BAE71F
:10205C000B681A1D0A601E6800213046626800F089
:10206C002FF808B1801B606063682361002384F83B
:10207C004330A8E73246494640462369D0470130F1
:10208C00ABD023689B0713D4E068039B9842B8BF7E
:10209C001846A4E70123324649464046D047013052
:1020AC009BD00135E36803995B1AAB42F2DCEBE79A
:1020BC00002504F11906F5E7BE240008CF2400081A
:1020CC00034610B5C9B202449342184601D1002010
:1020DC0003E0047801338C42F6D110BD0A449142DE
:1020EC0000F1FF3300D1704710B511F8014B91424C
:1020FC0003F8014FF9D110BD884210B501EB020471
:10210C0002D98442234607D8431EA14208D011F8B5
:10211C00012B03F8012FF8E7014602448A4200D153
:10212C0010BD13F8014D02F8014DF7E738B505461F
:10213C00002943D051F8043C0C1F002BB8BFE41805
:10214C0000F0D0F81E4A1368104633B9636014606F
:10215C002846BDE8384000F0CBB8A3420AD9216824
:10216C006218934201BF1A685B6852182260636060
:10217C000460EDE71A465B680BB1A342FAD911680B
:10218C005018A0420BD120680144501883421160B2
:10219C00DED118685B68014411605360D8E702D93E
:1021AC000C232B60D4E7206821188B4201BF1968DF
:1021BC005B680918216063605460C9E738BD00BFD3
:1021CC0090000020F8B5CD1C25F0030508350C2D2A
:1021DC0038BF0C25002D064601DBA94203D90C2380
:1021EC0033600020F8BD00F07DF821490A681446E0
:1021FC009CB9204F3B6823B92146304600F062F869
:10220C0038602946304600F05DF8431C23D10C237E
:10221C003046336000F06CF8E3E723685B1B17D49F
:10222C000B2B03D923601C44256004E06368A24295
:10223C000CBF0B605360304600F05AF804F10B00F1
:10224C00231D20F00700C21ACCD01B1AA350C9E7DB
:10225C0022466468CCE7C41C24F00304A042E3D0FB
:10226C00211A304600F02EF80130DDD1CFE700BF47
:10227C009000002094000020F8B5074614460E4646
:10228C0021B91146BDE8F840FFF79CBF22B9FFF712
:10229C004DFF25462846F8BD00F030F8A0420FD27D
:1022AC0021463846FFF78EFF05460028F2D031460E
:1022BC002246FFF713FF31463846FFF737FFE9E7B1
:1022CC003546E7E738B50023054D044608462B6034
:1022DC00FEF7D8FB431C02D12B6803B1236038BD39
:1022EC009C000020014800F011B800BFA4000020A1
:1022FC00014800F00CB800BFA400002051F8043CC9
:10230C00181F002BBCBF0B58C01870477047704784
:10231C00F8B500BFF8BC08BC9E467047F8B500BFC6
:08232C00F8BC08BC9E46704796
:102334004C41422E2050524F4345535341444F5237
:10234400000000004D494755454C2026204F54417C
:1023540056494F004E614E20302100002564000094
:102364002E2564003738392F3435362A3132332D4F
:1023740063303D2B4F503D3E2000000052455355E5
:102384004C5441444F3D200002030405060708094C
:102394000A0B0C0D0E0F10100000000000000000CE
:1023A4000102030406070809002020202020202021
:1023B40020202828282828202020202020202020F1
:1023C4002020202020202020208810101010101001
:1023D400101010101010101010040404040404044D
:1023E40004040410101010101010414141414141E7
:1023F40001010101010101010101010101010101C9
:1024040001010101101010101010424242424242D8
:102414000202020202020202020202020202020298
:102424000202020210101010200000000000000040
:102434000000000000000000000000000000000098
:102444000000000000000000000000000000000088
:102454000000000000000000000000000000000078
:102464000000000000000000000000000000000068
:102474000000000000000000000000000000000058
:102484000000000000000000000000000000000048
:102494000000000000000000000000000000000038
:1024A400000000000000000000232D302B200068F5
:1024B4006C4C00656667454647003031323334352D
:1024C400363738394142434445460030313233349B
:0C24D40035363738396162636465660094
:0424E00031010008BE
:0424E4000D010008DE
:1024E8000024F4001000000001000000100000208B
:1024F80000000000000000000000000000000000D4
:1025080000000000000000000000000000000000C3
:1025180000000000000000000000000000000000B3
:1025280000000000000000000000000000000000A3
:102538000000000000000000000000000000000093
:102548000000000000000000000000000000000083
:0400000508000B09DB
:00000001FF
