:020000040800F2
:1000000000280020AD120008D1100008D710000809
:10001000DD100008E3100008E910000800000000EF
:10002000000000000000000000000000EF100008C9
:10003000FB10000800000000071100081311000861
:10004000F5120008F5120008F5120008F512000874
:10005000F5120008F5120008F5120008F512000864
:10006000F5120008F5120008F5120008F512000854
:10007000F5120008F5120008F5120008F512000844
:10008000F5120008F5120008F5120008F512000834
:10009000F5120008F5120008F5120008F512000824
:1000A000F5120008F5120008F5120008F512000814
:1000B000F5120008F512000800000000F512000813
:1000C000F51200080000000000000000F512000812
:1000D00000000000F5120008F51200080000000002
:1000E000F5120008F5120008F512000800000000E3
:1000F0000000000000000000000000000000000000
:0C01000000000000000000005FF808F1A3
:1001100010B5054C237833B9044B13B10448AFF341
:1001200000800123237010BDDC01002000000000CE
:10013000A456000808B5034B1BB103490348AFF3AD
:10014000008008BD00000000E0010020A456000867
:10015000034613F8012B002AFBD1181A0138704707
:1001600081F0004102E000BF83F0004330B54FEA68
:1001700041044FEA430594EA050F08BF90EA020FD5
:100180001FBF54EA000C55EA020C7FEA645C7FEA68
:10019000655C00F0E2804FEA5454D4EB5555B8BF8B
:1001A0006D420CDD2C4480EA020281EA030382EAFC
:1001B000000083EA010180EA020281EA0303362D8E
:1001C00088BF30BD11F0004F4FEA01314FF4801C61
:1001D0004CEA113102D0404261EB410113F0004F73
:1001E0004FEA03334CEA133302D0524263EB43032A
:1001F00094EA050F00F0A780A4F10104D5F1200EC8
:100200000DDB02FA0EFC22FA05F2801841F1000122
:1002100003FA0EF2801843FA05F359410EE0A5F1F6
:1002200020050EF1200E012A03FA0EFC28BF4CF027
:10023000020C43FA05F3C01851EBE37101F00045DD
:1002400007D54FF0000EDCF1000C7EEB00006EEBEA
:100250000101B1F5801F1BD3B1F5001F0CD3490874
:100260005FEA30004FEA3C0C04F101044FEA4452CB
:1002700012F5800F80F09A80BCF1004F08BF5FEA52
:10028000500C50F1000041EB045141EA050130BD32
:100290005FEA4C0C404141EB0101013C28BFB1F544
:1002A000801FE9D291F0000F04BF01460020B1FA8F
:1002B00081F308BF2033A3F10B03B3F120020CDA62
:1002C0000C3208DD02F1140CC2F10C0201FA0CF040
:1002D00021FA02F10CE002F11402D8BFC2F1200CA5
:1002E00001FA02F120FA0CFCDCBF41EA0C0190405B
:1002F000E41AA2BF01EB0451294330BD6FEA0404A4
:100300001F3C1CDA0C340EDC04F11404C4F120028E
:1003100020FA04F001FA02F340EA030021FA04F3A0
:1003200045EA030130BDC4F10C04C4F1200220FAF7
:1003300002F001FA04F340EA0300294630BD21FA35
:1003400004F0294630BD94F0000F83F4801306BFFB
:1003500081F480110134013D4EE77FEA645C18BFEF
:100360007FEA655C29D094EA050F08BF90EA020F86
:1003700005D054EA000C04BF1946104630BD91EA7E
:10038000030F1EBF0021002030BD5FEA545C05D181
:100390004000494128BF41F0004130BD14F58004C0
:1003A0003CBF01F5801130BD01F0004545F0FE4134
:1003B00041F470014FF0000030BD7FEA645C1ABF69
:1003C000194610467FEA655C1CBF0B46024650EAA0
:1003D000013406BF52EA033591EA030F41F40021CC
:1003E00030BD00BF90F0000F04BF0021704730B552
:1003F0004FF4806404F132044FF000054FF0000127
:1004000050E700BF90F0000F04BF0021704730B5E7
:100410004FF4806404F1320410F0004548BF4042BC
:100420004FF000013EE700BF42004FEAE2014FEA11
:1004300031014FEA02701FBF12F07F4393F07F4FEC
:1004400081F06051704732F07F4208BF704793F0EF
:100450007F4F04BF41F40021704730B54FF4607402
:1004600001F0004521F000411CE700BF50EA010205
:1004700008BF704730B54FF000050AE050EA0102AE
:1004800008BF704730B511F0004502D5404261EB1E
:1004900041014FF4806404F132045FEA915C3FF45F
:1004A000D8AE4FF003025FEADC0C18BF03325FEAFC
:1004B000DC0C18BF033202EBDC02C2F1200300FAAD
:1004C00003FC20FA02F001FA03FE40EA0E0021FAD2
:1004D00002F11444BDE600BF70B54FF0FF0C4CF4C0
:1004E000E06C1CEA11541DBF1CEA135594EA0C0F72
:1004F00095EA0C0F00F0DEF82C4481EA030621EAAD
:100500004C5123EA4C5350EA013518BF52EA0335E7
:1005100041F4801143F4801338D0A0FB02CE4FF099
:100520000005E1FB02E506F00042E0FB03E54FF0C9
:100530000006E1FB03569CF0000F18BF4EF0010EC1
:10054000A4F1FF04B6F5007F64F5407404D25FEABD
:100550004E0E6D4146EB060642EAC62141EA555170
:100560004FEAC52040EA5E504FEACE2EB4F1FD0CB2
:1005700088BFBCF5E06F1ED8BEF1004F08BF5FEA30
:10058000500E50F1000041EB045170BD06F00046E2
:1005900046EA010140EA020081EA0301B4EB5C048F
:1005A000C2BFD4EB0C0541EA045170BD41F4801187
:1005B0004FF0000E013C00F3AB8014F1360FDEBFAC
:1005C000002001F0004170BDC4F10004203C35DA88
:1005D0000C341BDC04F11404C4F1200500FA05F30B
:1005E00020FA04F001FA05F240EA020001F00042AC
:1005F00021F0004110EBD37021FA04F642EB060122
:100600005EEA430E08BF20EAD37070BDC4F10C044B
:10061000C4F1200500FA04F320FA05F001FA04F20F
:1006200040EA020001F0004110EBD37041F10001FB
:100630005EEA430E08BF20EAD37070BDC4F1200506
:1006400000FA05F24EEA020E20FA04F301FA05F26E
:1006500043EA020321FA04F001F0004121FA04F216
:1006600020EA020000EBD3705EEA430E08BF20EAE6
:10067000D37070BD94F0000F0FD101F00046400020
:1006800041EB010111F4801F08BF013CF7D041EAA2
:10069000060195F0000F18BF704703F000465200A6
:1006A00043EB030313F4801F08BF013DF7D043EA77
:1006B0000603704794EA0C0F0CEA135518BF95EA2D
:1006C0000C0F0CD050EA410618BF52EA4306D1D1B4
:1006D00081EA030101F000414FF0000070BD50EAD3
:1006E000410606BF1046194652EA430619D094EA5D
:1006F0000C0F02D150EA013613D195EA0C0F05D147
:1007000052EA03361CBF104619460AD181EA03019A
:1007100001F0004141F0FE4141F470014FF0000052
:1007200070BD41F0FE4141F4780170BD70B54FF0ED
:10073000FF0C4CF4E06C1CEA11541DBF1CEA13556D
:1007400094EA0C0F95EA0C0F00F0A7F8A4EB05044F
:1007500081EA030E52EA03354FEA013100F0888046
:100760004FEA03334FF0805545EA131343EA12630F
:100770004FEA022245EA111545EA10654FEA0026C4
:100780000EF000419D4208BF964244F1FD0404F57D
:10079000407402D25B084FEA3202B61A65EB0305D9
:1007A0005B084FEA32024FF480104FF4002CB6EB96
:1007B000020E75EB030E22BFB61A754640EA0C0016
:1007C0005B084FEA3202B6EB020E75EB030E22BF56
:1007D000B61A754640EA5C005B084FEA3202B6EB97
:1007E000020E75EB030E22BFB61A754640EA9C0056
:1007F0005B084FEA3202B6EB020E75EB030E22BF26
:10080000B61A754640EADC0055EA060E18D04FEAE3
:10081000051545EA16754FEA06164FEAC30343EA83
:1008200052734FEAC2025FEA1C1CC0D111F4801F50
:100830000BD141EA00014FF000004FF0004CB6E749
:1008400011F4801F04BF01430020B4F1FD0C88BFE8
:10085000BCF5E06F3FF6AFAEB5EB030C04BFB6EBF3
:10086000020C5FEA500C50F1000041EB045170BDE6
:100870000EF0004E4EEA113114EB5C04C2BFD4EB13
:100880000C0541EA045170BD41F480114FF0000E97
:10089000013C90E645EA060E8DE60CEA135594EA13
:1008A0000C0F08BF95EA0C0F3FF43BAF94EA0C0F16
:1008B0000AD150EA01347FF434AF95EA0C0F7FF48B
:1008C00025AF104619462CE795EA0C0F06D152EADF
:1008D00003353FF4FDAE1046194622E750EA4106C3
:1008E00018BF52EA43067FF4C5AE50EA41047FF4D4
:1008F0000DAF52EA43057FF4EBAE12E74FF0FF3C39
:1009000006E000BF4FF0010C02E000BF4FF0010C09
:100910004DF804CD4FEA410C7FEA6C5C4FEA430C82
:1009200018BF7FEA6C5C1BD001B050EA410C0CBFD1
:1009300052EA430C91EA030F02BF90EA020F002033
:10094000704710F1000F91EA030F58BF994208BF9A
:1009500090422CBFD8176FEAE37040F00100704757
:100960004FEA410C7FEA6C5C02D150EA013C07D1AE
:100970004FEA430C7FEA6C5CD6D152EA033CD3D0F9
:100980005DF8040B704700BF8446104662468C46F3
:100990001946634600E000BF01B5FFF7B7FF002826
:1009A00048BF10F1000F01BD4DF808EDFFF7F4FF4F
:1009B0000CBF012000205DF808FB00BF4DF808EDDA
:1009C000FFF7EAFF34BF012000205DF808FB00BFFD
:1009D0004DF808EDFFF7E0FF94BF012000205DF81F
:1009E00008FB00BF4DF808EDFFF7CEFF94BF0120D4
:1009F00000205DF808FB00BF4DF808EDFFF7C4FFCD
:100A000034BF012000205DF808FB00BF4FEA410C15
:100A10007FEA6C5C02D150EA013C0AD14FEA430CF8
:100A20007FEA6C5C02D152EA033C02D14FF0000035
:100A300070474FF0010070474FEA410212F5001273
:100A400015D211D56FF47873B3EB625212D94FEA15
:100A5000C12343F0004343EA505311F0004F23FAFF
:100A600002F018BF404270474FF00000704750EA54
:100A7000013005D111F0004008BF6FF00040704711
:100A80004FF00000704700BF4FEA4102B2F1E0436F
:100A900024BFB3F5001CDCF1FE5C0DD901F0004C65
:100AA0004FEAC0024CEA5070B2F1004F40EB8300B5
:100AB00008BF20F00100704711F0804F21D113F1E1
:100AC0003872BCBF01F00040704741F480114FEA1A
:100AD0005252C2F11802C2F1200C10FA0CF320FAA3
:100AE00002F018BF40F001004FEAC1234FEAD323C0
:100AF00003FA0CFC40EA0C0023FA02F34FEA43032A
:100B0000CCE77FEA625307D150EA01331EBF4FF0B2
:100B1000FE4040F44000704701F0004040F0FE40CD
:100B200040F40000704700BF80B582B000AF78602D
:100B30007B68DBB2184600F0D5F97B6818460837A9
:100B4000BD4680BD0000000080B584B002AF00F05B
:100B5000D3FB00F053F800F0DFF800F09FF80E2010
:100B600000F0F6F90021002000F014FA204800F00F
:100B700049FC1F4800F01EFD0A211D4800F0F4FD4D
:100B80001B4800F0EBFE03467B60194800F0C0FDF7
:100B9000642000F013FC0021002000F0FBF97968CC
:100BA000144802F0F3FC7868FFF72CFC0EA3D3E99D
:100BB0000023FFF791FC02460B4610461946FFF74B
:100BC00063FF03463B600121002000F0E3F9386831
:100BD000FFF72AFC02460B46DF210091064802F08F
:100BE000D5FCC6E7AFF30080AF3B387C74A1B43FBF
:100BF00004020020C0560008C856000880B594B012
:100C000000AF07F1280328220021184602F056F809
:100C100007F1140300221A605A609A60DA601A61C0
:100C20003B1D00221A605A609A60DA600223BB62A0
:100C30000123BB631023FB6300237B6407F12803BC
:100C4000184601F091FA0346002B01D000F0CCF9D0
:100C50000F237B610023BB610023FB6100233B6208
:100C600000237B6207F114030021184601F0FCFC0D
:100C70000346002B01D000F0B7F902237B6000236C
:100C8000FB603B1D184601F075FE0346002B01D0AA
:100C900000F0AAF900BF5037BD4680BD80B584B0D2
:100CA00000AF3B1D00221A605A609A60184B194A27
:100CB0001A60174B00229A60154B00221A73144BCE
:100CC00000221A75124B4FF46022DA61104B002299
:100CD0005A600F4B01221A610D4800F093FB034646
:100CE000002B01D000F080F904237B600123BB605E
:100CF0000023FB603B1D1946054800F03BFE034600
:100D0000002B01D000F070F900BF1037BD4680BD48
:100D1000040200200024014080B586B000AF07F136
:100D2000080300221A605A609A60DA60124B9B69CD
:100D3000114A43F0040393610F4B9B6903F00403D2
:100D40007B607B68002240F20F310C4801F0F4F91F
:100D500040F20F33BB600123FB6000233B610223A1
:100D60007B6107F108031946044801F06BF800BFE6
:100D70001837BD4680BD00BF00100240000801408A
:100D800080B483B000AF07237B6000BF7B685A1E2E
:100D90007A60002BFAD100BF00BF0C37BD4680BC83
:100DA000704780B582B000AF786001E0FFF7E8FFE0
:100DB0007B685A1E7A60002BF8D100BF00BF08374D
:100DC000BD4680BD80B483B000AF0346FB71FB79A4
:100DD00003F00103002B03D1174B01225A6102E0FB
:100DE000154B01221A61FB7903F00203002B03D19A
:100DF000114B02225A6102E00F4B02221A61FB7969
:100E000003F00403002B03D10B4B04225A6102E0D0
:100E1000094B04221A61FB7903F00803002B03D16C
:100E2000054B08225A6102E0034B08221A6100BFF9
:100E30000C37BD4680BC70470008014080B582B0C9
:100E400000AF0346FB71FB791846FFF7BBFF0B4B66
:100E50004FF480725A61094B4FF400721A610520F9
:100E6000FFF79FFF054B4FF400725A61052000F019
:100E7000A5FA00BF0837BD4680BD00BF000801408D
:100E800080B582B000AF0346FB71FB791B09DBB272
:100E90001846FFF797FF124B4FF480725A61104BC0
:100EA0004FF400721A610520FFF77BFF0C4B4FF4E3
:100EB00000725A61FB791846FFF784FF084B4FF424
:100EC00000721A610520FFF76CFF054B4FF40072AA
:100ED0005A61052000F072FA00BF0837BD4680BD98
:100EE0000008014080B582B000AF0346FB71FB797A
:100EF0001B09DBB21846FFF765FF144B4FF48072F5
:100F00001A61124B4FF400721A610520FFF749FF76
:100F10000E4B4FF400725A61052000F04FFAFB7936
:100F20001846FFF74FFF094B4FF400721A61052076
:100F3000FFF737FF054B4FF400725A61052000F0B0
:100F40003DFA00BF0837BD4680BD00BF0008014024
:100F500080B582B000AF0346FB710320FFF76EFF40
:100F60000320FFF76BFF0320FFF768FF0220FFF766
:100F700065FF2820FFF784FFFB791846FFF780FF05
:100F80000620FFF77DFF0120FFF77AFF00BF08373B
:100F9000BD4680BD80B584B000AF03460A46FB71F4
:100FA0001346BB718023FB73BB79002B02D1FB7905
:100FB000803BFB73BB79012B02D1FB79403BFB7378
:100FC000BB79022B02D1FB79703BFB73BB79032BFE
:100FD00002D1FB79303BFB73FB7B1846FFF750FFD8
:100FE00000BF1037BD4680BD80B400AF72B600BFF1
:100FF000FEE7000080B485B000AF154B9B69144A32
:1010000043F001039361124B9B6903F00103BB6042
:10101000BB680F4BDB690E4A43F08053D3610C4B26
:10102000DB6903F080537B607B680A4B5B68FB6085
:10103000FB6823F0E063FB60FB6843F00073FB6038
:10104000044AFB68536000BF1437BD4680BC70473C
:10105000001002400000014080B588B000AF786009
:1010600007F1100300221A605A609A60DA607B6808
:101070001B68144A934221D1134B9B69124A43F4D3
:1010800000739361104B9B6903F40073FB60FB6872
:101090000D4B9B690C4A43F0040393610A4B9B6917
:1010A00003F00403BB60BB6810233B6103237B6137
:1010B00007F110031946054800F0C4FE00BF2037B1
:1010C000BD4680BD002401400010024000080140E0
:1010D00080B400AFFEE780B400AFFEE780B400AF9D
:1010E000FEE780B400AFFEE780B400AFFEE780B457
:1010F00000AF00BFBD4680BC704780B400AF00BFEA
:10110000BD4680BC704780B400AF00BFBD4680BC08
:10111000704780B500AF00F035F900BF80BD80B4E6
:1011200000AF01231846BD4680BC704780B582B031
:1011300000AF7860396001F097FD034616221A600F
:101140004FF0FF3318460837BD4680BD80B582B0EA
:1011500000AF78604FF0FF317868FFF7E7FFFEE7F8
:1011600080B586B000AFF860B9607A6000237B611B
:101170000AE0AFF300800146BB685A1CBA60CAB2ED
:101180001A707B6901337B617A697B689A42F0DB74
:101190007B6818461837BD4680BD80B586B000AF65
:1011A000F860B9607A6000237B6109E0BB685A1C73
:1011B000BA601B781846FFF7B7FC7B6901337B6187
:1011C0007A697B689A42F1DB7B6818461837BD461E
:1011D00080BD80B483B000AF78604FF0FF33184615
:1011E0000C37BD4680BC704780B483B000AF7860D8
:1011F00039603B684FF400525A60002318460C37A0
:10120000BD4680BC704780B483B000AF78600123D6
:1012100018460C37BD4680BC704780B485B000AF1F
:10122000F860B9607A60002318461437BD4680BC68
:101230007047000080B586B000AF7860144A154B47
:10124000D31A7B617B693B61134B1B68002B02D176
:10125000114B124A1A60104B1A687B6813443A69A2
:101260009A4207D201F000FD03460C221A604FF0AB
:10127000FF3309E0084B1B68FB60074B1A687B686B
:101280001344054A1360FB6818461837BD4680BDF5
:101290000028002000040000F8010020480200207F
:1012A00080B400AF00BFBD4680BC7047002103E0A2
:1012B0000B4B5B58435004310A480B4B42189A427F
:1012C000F6D30A4A02E0002342F8043B084B9A4254
:1012D000F9D3FFF7E5FF01F0CDFCFFF735FC7047D0
:1012E000F45A000800000020DC010020DC0100208E
:1012F00048020020FEE7000080B500AF084B1B68E5
:10130000074A43F010031360032000F067FD00203C
:1013100000F008F8FFF76EFE0023184680BD00BFFE
:101320000020024080B582B000AF7860124B1A688E
:10133000124B1B7819464FF47A73B3FBF1F3B2FBEF
:10134000F3F3184600F071FD0346002B01D0012392
:101350000EE07B680F2B0AD8002279684FF0FF302F
:1013600000F047FD064A7B681360002300E001237C
:1013700018460837BD4680BD000000200800002048
:101380000400002080B400AF054B1B781A46054BC3
:101390001B681344034A136000BFBD4680BC7047FE
:1013A000080000203402002080B400AF024B1B680C
:1013B0001846BD4680BC70473402002080B584B01A
:1013C00000AF7860FFF7F0FFB8607B68FB60FB68F8
:1013D000B3F1FF3F05D00A4B1B781A46FB68134454
:1013E000FB6000BFFFF7E0FF0246BB68D31AFA6854
:1013F0009A42F7D800BF00BF1037BD4680BD00BF7E
:101400000800002080B586B000AF78600023FB752F
:1014100000233B610023BB600023FB607B68002B43
:1014200001D10123BEE07B689B68002B7B689B6A2F
:10143000002B09D17B680022DA627B68002283F8E6
:1014400024207868FFF708FE786800F0DDFB03468B
:10145000FB757B689B6A03F01003002B40F09980BA
:10146000FB7D002B40F095807B689B6A23F48853BA
:1014700023F0020343F002027B689A627B685A6899
:101480007B68DB691A437B681B7B5B001343BA688C
:101490001343BB607B689B68B3F5807F03D07B6898
:1014A0009B68012B02D14FF4807300E000233A695E
:1014B00013433B617B681B7D012B19D17B681B7B30
:1014C000002B09D17B689B69013B5A033B6913439D
:1014D00043F400633B610BE07B689B6A43F02002AE
:1014E0007B689A627B68DB6A43F001027B68DA62A0
:1014F0007B681B685B6823F469417B681B683A69F9
:101500000A435A607B681B689A68284B13407A68C4
:101510001268B9680B4393607B689B68B3F5807F62
:1015200003D07B689B68012B04D17B681B69013B5E
:101530001B05FB607B681B68DB6A23F470017B681A
:101540001B68FA680A43DA627B681B689A68184B62
:101550001340BA689A420BD17B680022DA627B683A
:101560009B6A23F0030343F001027B689A6218E050
:101570007B689B6A23F0120343F010027B689A6237
:101580007B68DB6A43F001027B68DA620123FB754A
:1015900007E07B689B6A43F010027B689A62012334
:1015A000FB75FB7D18461837BD4680BDFDF7E1FF92
:1015B000FE0E1FFF80B584B000AF78600023FB7380
:1015C0007B6893F82430012B01D1022398E07B68DB
:1015D000012283F82420786800F0C4FA0346FB73E4
:1015E000FB7B002B40F087807B689B6A23F4407371
:1015F00023F0010343F480727B689A627B681B6866
:10160000414A934205D1414B5B6803F47023002BA0
:1016100015D17B689B6A23F480127B689A627B6891
:101620001B685B6803F48063002B26D07B689B6A91
:1016300023F4405343F480527B689A621DE07B6838
:101640009B6A43F480127B689A627B681B682F4A0E
:10165000934204D07B681B682B4A93420DD12B4BDD
:101660005B6803F48063002B07D07B689B6A23F4DC
:10167000405343F480527B689A627B689B6A03F410
:101680008053002B06D07B68DB6A23F006027B6860
:10169000DA6202E07B680022DA627B68002283F86B
:1016A00024207B681B686FF002021A607B681B684D
:1016B0009B6803F46023B3F5602F13D17B681B682C
:1016C000114A934205D1114B5B6803F47023002B40
:1016D00008D17B681B689A687B681B6842F4A0028B
:1016E0009A600CE07B681B689A687B681B6842F410
:1016F00080129A6003E07B68002283F82420FB7B41
:1017000018461037BD4680BD002801400024014026
:1017100080B584B000AF78600023FB737B6893F8DA
:101720002430012B01D102231AE07B68012283F8C7
:101730002420786800F068FA0346FB73FB7B002BDB
:1017400009D17B689B6A23F4885323F0010343F09B
:1017500001027B689A627B68002283F82420FB7B6D
:1017600018461037BD4680BD90B587B000AF786091
:10177000396000237B610023FB6000233B61FFF79E
:1017800013FE78617B681B689B6803F48073002BF1
:101790000BD07B689B6A43F020027B689A627B686F
:1017A000002283F824200123C8E07B681B685B6863
:1017B00003F48073002B2AD17B681B68DB6A03F477
:1017C0007003002B23D11AE03B68B3F1FF3F16D022
:1017D0003B68002B07D0FFF7E7FD02467B69D31A71
:1017E0003A689A420BD27B689B6A43F004027B689A
:1017F0009A627B68002283F8242003239EE07B68A2
:101800001B681B6803F00203002BDDD06CE04D4B1E
:101810001C68022001F064F90346B4FBF3F27B6814
:101820001B681969484B0B40002B18D17B681B685B
:10183000D968464B0B40002B11D17B681B68196996
:10184000434B0B40002B08D17B681B68D968414B88
:101850000B40002B01D1142320E029231EE07B68DC
:101860001B6819693A4B0B40002B06D17B681B683B
:10187000D968384B0B40002B0DD07B681B68196969
:10188000354B0B40002B08D17B681B68D968324B65
:101890000B40002B01D1542300E0FC2302FB03F397
:1018A0003B611DE03B68B3F1FF3F16D03B68002B66
:1018B00007D0FFF779FD02467B69D31A3A689A424E
:1018C0000BD27B689B6A43F004027B689A627B6858
:1018D000002283F82420032330E0FB680133FB60FF
:1018E000FB683A699A42DDD87B681B686FF0120288
:1018F0001A607B689B6A43F400727B689A627B681B
:101900001B689B6803F46023B3F5602F15D17B68D7
:101910001B7B002B11D17B689B6A23F480727B6850
:101920009A627B689B6A03F48053002B05D17B6825
:101930009B6A43F001027B689A62002318461C37B9
:10194000BD4690BD00000020244992242449920005
:1019500092244912922449004992240080B483B011
:1019600000AF78607B681B68DB6C18460C37BD469F
:1019700080BC704780B485B000AF786039600023C8
:10198000FB730023BB607B6893F82430012B01D1EB
:101990000223DCE07B68012283F824203B685B683B
:1019A000062B1CD87B681B68596B3B685A6813462A
:1019B0009B001344053B1F2202FA03F3DB4319404B
:1019C0003B6818683B685A6813469B001344053B04
:1019D00000FA03F27B681B680A435A633CE03B68E9
:1019E0005B680C2B1CD87B681B68196B3B685A68BA
:1019F00013469B001344233B1F2202FA03F3DB43ED
:101A000019403B6818683B685A6813469B001344AA
:101A1000233B00FA03F27B681B680A431A631BE04E
:101A20007B681B68D96A3B685A6813469B0013445D
:101A3000413B1F2202FA03F3DB4319403B6818685D
:101A40003B685A6813469B001344413B00FA03F27B
:101A50007B681B680A43DA623B681B68092B1CD948
:101A60007B681B68D9683B681A6813465B0013449F
:101A70001E3B072202FA03F3DB4319403B689868D8
:101A80003B681A6813465B0013441E3B00FA03F2DE
:101A90007B681B680A43DA6019E07B681B68196978
:101AA0003B681A6813465B001344072202FA03F3EB
:101AB000DB4319403B6898683B681A6813465B0033
:101AC000134400FA03F27B681B680A431A613B68FF
:101AD0001B68102B03D03B681B68112B32D17B682D
:101AE0001B681D4A934225D17B681B689B6803F4E1
:101AF0000003002B26D17B681B689A687B681B68F3
:101B000042F400029A603B681B68102B1AD1134BF9
:101B10001B68134AA2FB03239A0C13469B00134431
:101B20005B00BB6002E0BB68013BBB60BB68002B95
:101B3000F9D107E07B689B6A43F020027B689A62D8
:101B40000123FB737B68002283F82420FB7B18466B
:101B50001437BD4680BC70470024014000000020BF
:101B600083DE1B4380B584B000AF78600023FB6048
:101B70000023BB607B681B689B6803F00103012B9B
:101B800039D07B681B689A687B681B6842F0010249
:101B90009A601B4B1B681B4AA2FB03239B0CBB6078
:101BA00002E0BB68013BBB60BB68002BF9D1FFF7CB
:101BB000FBFBF86018E0FFF7F7FB0246FB68D31A5F
:101BC000022B11D97B689B6A43F010027B689A62F2
:101BD0007B68DB6A43F001027B68DA627B68002283
:101BE00083F82420012307E07B681B689B6803F0CF
:101BF0000103012BDFD1002318461037BD4680BDFD
:101C00000000002083DE1B4380B584B000AF786005
:101C10000023FB607B681B689B6803F00103012BBA
:101C200027D17B681B689A687B681B6822F00102D9
:101C30009A60FFF7B9FBF86014E0FFF7B5FB0246C6
:101C4000FB68D31A022B0DD97B689B6A43F0100204
:101C50007B689A627B68DB6A43F001027B68DA6228
:101C6000012307E07B681B689B6803F00103012BDD
:101C7000E3D0002318461037BD4680BD80B485B040
:101C800000AF78607B6803F00703FB600C4BDB68F8
:101C9000BB60BA684FF6FF031340BB60FB681A02D3
:101CA000BB68134343F0BF6343F40033BB60044A93
:101CB000BB68D36000BF1437BD4680BC704700BF0F
:101CC00000ED00E080B400AF044BDB681B0A03F0BA
:101CD00007031846BD4680BC704700BF00ED00E01A
:101CE00080B483B000AF03463960FB7197F90730C9
:101CF000002B0ADB3B68DAB20C4997F90730120176
:101D0000D2B20B4483F800230AE03B68DAB20849F8
:101D1000FB7903F00F03043B1201D2B20B441A7695
:101D200000BF0C37BD4680BC704700BF00E100E03B
:101D300000ED00E080B489B000AFF860B9607A606F
:101D4000FB6803F00703FB61FB69C3F10703042B86
:101D500028BF0423BB61FB690433062B02D9FB694E
:101D6000033B00E000237B614FF0FF32BB6902FAC6
:101D700003F3DA43BB681A407B699A404FF0FF31A6
:101D80007B6901FA03F3D9437B680B401343184680
:101D90002437BD4680BC704780B582B000AF786004
:101DA0007B68013BB3F1807F01D301230FE00A4A36
:101DB0007B68013B53600F214FF0FF30FFF790FF2E
:101DC000054B00229A60044B07221A600023184634
:101DD0000837BD4680BD00BF10E000E080B582B08E
:101DE00000AF78607868FFF749FF00BF0837BD464D
:101DF00080BD80B586B000AF0346B9607A60FB73E2
:101E000000237B61FFF75EFF78617A68B9687869C3
:101E1000FFF790FF024697F90F3011461846FFF77B
:101E20005FFF00BF1837BD4680BD80B582B000AFF0
:101E300078607868FFF7B0FF034618460837BD465C
:101E400080BD000080B48BB000AF786039600023A3
:101E50007B6200233B6248E101227B6A02FA03F3C2
:101E6000FB613B681B68FA691340BB61BA69FB6997
:101E70009A4240F037813B685B68A34A93425ED048
:101E8000A14A934275D8A14A934258D09F4A93429F
:101E90006FD89F4A934252D09D4A934269D89D4A37
:101EA00093424CD09B4A934263D89B4A934246D07C
:101EB000994A93425DD8122B2AD8122B59D801A2E5
:101EC00052F823F03F1F0008191F00082B1F0008BD
:101ED0006D1F0008731F0008731F0008731F0008A0
:101EE000731F0008731F0008731F0008731F00088A
:101EF000731F0008731F0008731F0008731F00087A
:101F0000731F0008731F0008211F0008351F0008F9
:101F1000824A934213D02CE03B68DB683B6229E0A5
:101F20003B68DB6804333B6224E03B68DB680833D2
:101F30003B621FE03B68DB680C333B621AE03B68A6
:101F40009B68002B02D104233B6213E03B689B6833
:101F5000012B05D108233B627B68FA691A6109E00D
:101F600008233B627B68FA695A6103E000233B6205
:101F700000E000BFBB69FF2B01D87B6801E07B68F4
:101F800004337B61BB69FF2B02D87B6A9B0002E0B4
:101F90007B6A083B9B003B617B691A680F213B69A8
:101FA00001FA03F3DB431A40396A3B6901FA03F390
:101FB0001A437B691A603B685B6803F08053002B0F
:101FC00000F09080564B9B69554A43F001039361A2
:101FD000534B9B6903F00103BB60BB68514A7B6AAA
:101FE0009B08023352F82330FB607B6A03F0030343
:101FF0009B000F2202FA03F3DB43FA681340FB60F5
:102000007B68494A93420DD07B68484A934207D087
:102010007B68474A934201D1022304E0032302E094
:10202000012300E000237A6A02F003029200934049
:10203000FA681343FB603B497B6A9B080233FA68EA
:1020400041F823203B685B6803F48033002B06D003
:10205000384B1A683749BB6913430B6006E0354BB0
:102060001A68BB69DB43334913400B603B685B680C
:1020700003F40033002B06D02E4B5A682D49BB6960
:1020800013434B6006E02B4B5A68BB69DB4329497D
:1020900013404B603B685B6803F48013002B06D051
:1020A000244B9A682349BB6913438B6006E0214B9C
:1020B0009A68BB69DB431F4913408B603B685B68D0
:1020C00003F40013002B06D01A4BDA681949BB69D8
:1020D0001343CB6006E0174BDA68BB69DB43154955
:1020E0001340CB607B6A01337B623B681A687B6A72
:1020F00022FA03F3002B7FF4AFAE00BF00BF2C37F2
:10210000BD4680BC704700BF000032100000311097
:102110000000221000002110000012100000111019
:10212000001002400000014000080140000C014086
:10213000001001400004014080B483B000AF78601B
:102140000B467B8013467B707B78002B03D07A880C
:102150007B681A6103E07B881A047B681A6100BF00
:102160000C37BD4680BC704780B586B000AF786044
:102170007B68002B01D101236CE27B681B6803F0B4
:102180000103002B00F08780924B5B6803F00C0387
:10219000042B0CD08F4B5B6803F00C03082B12D17F
:1021A0008C4B5B6803F48033B3F5803F0BD1894BD4
:1021B0001B6803F40033002B6CD07B685B68002B3A
:1021C00068D1012346E27B685B68B3F5803F06D1A6
:1021D000804B1B687F4A43F4803313602EE07B689A
:1021E0005B68002B0CD17B4B1B687A4A23F480334D
:1021F0001360784B1B68774A23F4802313601DE03B
:102200007B685B68B3F5A02F0CD1724B1B68714AD9
:1022100043F4802313606F4B1B686E4A43F4803392
:1022200013600BE06B4B1B686A4A23F48033136026
:10223000684B1B68674A23F4802313607B685B68E4
:10224000002B13D0FFF7B0F8386108E0FFF7ACF8C7
:1022500002463B69D31A642B01D90323FAE15D4B93
:102260001B6803F40033002BF0D014E0FFF79CF858
:10227000386108E0FFF798F802463B69D31A642BEF
:1022800001D90323E6E1534B1B6803F40033002B11
:10229000F0D100E000BF7B681B6803F00203002B55
:1022A00063D04C4B5B6803F00C03002B0BD0494B05
:1022B0005B6803F00C03082B1CD1464B5B6803F4EE
:1022C0008033002B16D1434B1B6803F00203002B15
:1022D00005D07B681B69012B01D00123BAE13D4B7E
:1022E0001B6823F0F8027B685B69DB003949134304
:1022F0000B603AE07B681B69002B20D0364B012233
:102300001A60FFF751F8386108E0FFF74DF8024610
:102310003B69D31A022B01D903239BE12D4B1B6888
:1023200003F00203002BF0D02A4B1B6823F0F802C5
:102330007B685B69DB00274913430B6015E0264B84
:1023400000221A60FFF730F8386108E0FFF72CF838
:1023500002463B69D31A022B01D903237AE11D4BB4
:102360001B6803F00203002BF0D17B681B6803F0AD
:102370000803002B3AD07B689B69002B19D0174BC0
:1023800001221A60FFF710F8386108E0FFF70CF837
:1023900002463B69D31A022B01D903235AE10D4BA4
:1023A0005B6A03F00203002BF0D0012000F0C4FAB6
:1023B0001CE00A4B00221A60FEF7F6FF38610FE0BE
:1023C000FEF7F2FF02463B69D31A022B08D903231A
:1023D00040E100BF0010024000004242800442423F
:1023E0009E4B5B6A03F00203002BE9D17B681B68FC
:1023F00003F00403002B00F0A6800023FB75974B2D
:10240000DB6903F08053002B0DD1944BDB69934AB9
:1024100043F08053D361914BDB6903F08053BB6081
:10242000BB680123FB758E4B1B6803F48073002B84
:1024300018D18B4B1B688A4A43F480731360FEF7F4
:10244000B3FF386108E0FEF7AFFF02463B69D31ADD
:10245000642B01D90323FDE0814B1B6803F48073D7
:10246000002BF0D07B68DB68012B06D17B4B1B6A0D
:102470007A4A43F0010313622DE07B68DB68002B8E
:102480000CD1764B1B6A754A23F001031362734B20
:102490001B6A724A23F0040313621CE07B68DB684A
:1024A000052B0CD16D4B1B6A6C4A43F0040313627D
:1024B0006A4B1B6A694A43F0010313620BE0674BE6
:1024C0001B6A664A23F001031362644B1B6A634A6A
:1024D00023F0040313627B68DB68002B15D0FEF742
:1024E00063FF38610AE0FEF75FFF02463B69D31ADB
:1024F00041F28832934201D90323ABE0574B1B6A68
:1025000003F00203002BEED014E0FEF74DFF38611C
:102510000AE0FEF749FF02463B69D31A41F28832CE
:10252000934201D9032395E04C4B1B6A03F002034D
:10253000002BEED1FB7D012B05D1484BDB69474ACF
:1025400023F08053D3617B68DB69002B00F081802E
:10255000424B5B6803F00C03082B61D07B68DB699E
:10256000022B46D13F4B00221A60FEF71DFF386157
:1025700008E0FEF719FF02463B69D31A022B01D986
:10258000032367E0354B1B6803F00073002BF0D189
:102590007B681B6AB3F5803F08D1304B5B6823F43E
:1025A00000327B689B682D4913434B602B4B5B6863
:1025B00023F474127B68196A7B685B6A0B432749B2
:1025C00013434B60274B01221A60FEF7EDFE386182
:1025D00008E0FEF7E9FE02463B69D31A022B01D957
:1025E000032337E01D4B1B6803F00073002BF0D072
:1025F0002FE01C4B00221A60FEF7D6FE386108E07F
:10260000FEF7D2FE02463B69D31A022B01D90323FF
:1026100020E0124B1B6803F00073002BF0D118E090
:102620007B68DB69012B01D1012313E00B4B5B6855
:10263000FB60FB6803F480327B681B6A9A4206D118
:10264000FB6803F470127B685B6A9A4201D0012335
:1026500000E0002318461837BD4680BD0010024038
:10266000007000406000424280B584B000AF7860E6
:1026700039607B68002B01D10123D0E06A4B1B68D5
:1026800003F007033A689A4210D9674B1B6823F09E
:10269000070265493B6813430B60634B1B6803F0FB
:1026A00007033A689A4201D00123B8E07B681B68AF
:1026B00003F00203002B20D07B681B6803F00403A7
:1026C000002B05D0594B5B68584A43F4E0635360D4
:1026D0007B681B6803F00803002B05D0534B5B6835
:1026E000524A43F460535360504B5B6823F0F0024E
:1026F0007B689B684D4913434B607B681B6803F004
:102700000103002B40D07B685B68012B07D1474B4E
:102710001B6803F40033002B15D101237FE07B6895
:102720005B68022B07D1414B1B6803F00073002B41
:1027300009D1012373E03D4B1B6803F00203002B1A
:1027400001D101236BE0394B5B6823F003027B6806
:102750005B68364913434B60FEF726FEF8600AE0DB
:10276000FEF722FE0246FB68D31A41F288329342FA
:1027700001D9032353E02D4B5B6803F00C027B6807
:102780005B689B009A42EBD1274B1B6803F0070361
:102790003A689A4210D2244B1B6823F00702224960
:1027A0003B6813430B60204B1B6803F007033A6838
:1027B0009A4201D0012332E07B681B6803F00403D6
:1027C000002B08D0194B5B6823F4E0627B68DB6860
:1027D000164913434B607B681B6803F00803002B0A
:1027E00009D0124B5B6823F460527B681B69DB00E5
:1027F0000E4913434B6000F021F802460B4B5B6817
:102800001B0903F00F030A49CB5C22FA03F3094AC0
:102810001360094B1B681846FEF784FD0023184619
:102820001037BD4680BD00BF0020024000100240AE
:10283000F4560008000000200400002090B48AB084
:1028400000AF2A4B3C1D0FCB84E80F0040F2012360
:102850003B800023FB610023BB6100237B620023DC
:102860007B6100233B62224B5B68FB61FB6903F0E9
:102870000C03042B02D0082B03D02DE01D4B3B6230
:102880002DE0FB699B0C03F00F0307F128021344B2
:1028900013F8243C7B61FB6903F48033002B13D0D5
:1028A000134B5B685B0C03F0010307F12802134430
:1028B00013F8283CBB617B690E4A02FB03F2BB693B
:1028C000B2FBF3F37B6204E07B690B4A02FB03F388
:1028D0007B627B6A3B6202E0064B3B6200BF3B6A65
:1028E00018462837BD4690BC704700BFD456000834
:1028F0000010024000127A0000093D0080B400AFD1
:10290000024B1B681846BD4680BC70470000002083
:1029100080B500AFFFF7F2FF0246054B5B68DB0AAC
:1029200003F007030349CB5C22FA03F3184680BD8A
:10293000001002400457000880B485B000AF7860F2
:102940000A4B1B680A4AA2FB03235B0A7A6802FB54
:1029500003F3FB6000BFFB685A1EFA60002BF9D13D
:1029600000BF00BF1437BD4680BC70470000002088
:10297000D34D621080B586B000AF786000233B6114
:102980000023FB607B681B6803F00103002B7DD0F4
:102990000023FB754F4BDB6903F08053002B0DD1F7
:1029A0004C4BDB694B4A43F08053D361494BDB69A5
:1029B00003F08053BB60BB680123FB75464B1B686B
:1029C00003F48073002B18D1434B1B68424A43F435
:1029D00080731360FEF7E8FC386108E0FEF7E4FC62
:1029E00002463B69D31A642B01D903236DE03A4BAD
:1029F0001B6803F48073002BF0D0364B1B6A03F482
:102A00004073FB60FB68002B2ED07B685B6803F48F
:102A10004073FA689A4227D02E4B1B6A23F4407306
:102A2000FB602E4B01221A602C4B00221A60294AAF
:102A3000FB681362FB6803F00103002B14D0FEF760
:102A4000B3FC38610AE0FEF7AFFC02463B69D31ADB
:102A500041F28832934201D9032336E01D4B1B6AB1
:102A600003F00203002BEED01A4B1B6A23F44072D2
:102A70007B685B68174913430B62FB7D012B05D113
:102A8000144BDB69134A23F08053D3617B681B68C6
:102A900003F00203002B08D00E4B5B6823F4404286
:102AA0007B689B680B4913434B607B681B6803F092
:102AB0001003002B08D0074B5B6823F480027B686F
:102AC000DB68044913434B60002318461837BD46A2
:102AD00080BD00BF00100240007000404004424230
:102AE00090B58DB000AF78605A4B07F10C040FCB56
:102AF00084E80F0040F201233B8100237B62002326
:102B0000FB6200233B620023FB610023BB627B6806
:102B1000102B0AD07B68102B00F291807B68012B70
:102B20004CD07B68022B7CD089E04B4B5B68FB610F
:102B3000494B1B6803F08073002B00F08280FB6917
:102B40009B0C03F00F0307F13002134413F8243CED
:102B50003B62FB6903F48033002B18D03E4B5B686B
:102B60005B0C03F0010307F13002134413F8283C17
:102B70007B62FB6903F48033002B0DD0374A7B6AFC
:102B8000B2FBF3F23B6A02FB03F3FB6204E03B6A35
:102B9000334A02FB03F3FB622F4B5B6803F48003B1
:102BA000B3F5800F02D1FB6ABB624AE0FB6A5B00AF
:102BB0002C4AA2FB03235B08BB6242E0264B1B6A44
:102BC000FB61FB6903F44073B3F5807F08D1FB69B7
:102BD00003F00203002B03D04FF40043BB621FE05D
:102BE000FB6903F44073B3F5007F09D11A4B5B6AAC
:102BF00003F00203002B03D049F64043BB620FE011
:102C0000FB6903F44073B3F5407F1CD1124B1B6882
:102C100003F40033002B16D04FF22443BB6212E0C2
:102C200011E0FFF775FE02460B4B5B689B0B03F050
:102C3000030301335B00B2FBF3F3BB6204E000BFAC
:102C400002E000BF00E000BFBB6A18463437BD4653
:102C500090BD00BFE45600080010024000127A0048
:102C600000093D00ABAAAAAA014B1868704700BF33
:102C70000C00002070B500260C4D0D4C641BA410F8
:102C8000A64209D102F00EFD00260A4D0A4C641B33
:102C9000A410A64205D170BD55F8043B98470136F3
:102CA000EEE755F8043B98470136F2E7EC5A000886
:102CB000EC5A0008EC5A0008F05A00080346024497
:102CC000934200D1704703F8011BF9E7002B2DE96F
:102CD000F0471F46BBBF03F100431F4600232D23CF
:102CE00088B01446129A109D1370149BDDF84CA006
:102CF00023F02008B8F1460F05D0B8F1450F00D1F8
:102D00000135022300E0032307AA049206AACDE9B5
:102D100002A2CDE9003522463B4600F0DDFCB8F1C9
:102D2000470F064602D1119BDB0722D5B8F1460FAB
:102D300006EB050910D13378302B0AD1002200238D
:102D400020463946FDF730FE18B9C5F10105CAF82D
:102D50000050DAF80030994400220023204639461A
:102D6000FDF722FE08B1CDF81C903022079B4B45A1
:102D700007D33046079B159A9B1B136008B0BDE82C
:102D8000F087591C07911A70F0E70346F7B5002940
:102D900003F8022BB6BF2D222B224942092942708B
:102DA0002BDD0DF10704A4460A2791FBF7F60A462E
:102DB000A64607FB1615632A05F13005314604F1D6
:102DC000FF340EF8015CF0DC3031AEF1020504F89E
:102DD000011C2946441C61450AD30DF10902A2EBEE
:102DE0000E02654588BF00221344181A03B0F0BDD7
:102DF00011F8012B04F8012FEDE7302330318370F7
:102E0000C170031DF1E700002DE9F04F91B00C46B1
:102E1000DDF8688016461F46054601F041FB036851
:102E200018460993FDF794F900230E93D8F8003063
:102E30000A90073323F0070303F1080294F818906F
:102E4000D4F800B0C8F80020D3E90023C4E9122365
:102E5000D4E9128A2AF000430B934FF0FF32404628
:102E60009C4B0B99FDF7D2FD70BB4FF0FF324046F3
:102E7000984B0B99FDF7ACFD30BB00220023404678
:102E80005146FDF79BFD10B12D2384F84330924B42
:102E90009248B9F1470F94BF9846804603234FF0FC
:102EA000000A23612BF004032360334621462846A1
:102EB00000970FAA00F0D4F9013040F090804FF055
:102EC000FF3011B0BDE8F08F4246534640465146B0
:102ED000FDF79CFD48B1BAF1000FB8BF2D23804823
:102EE000B8BF84F843307F4BD3E7636809F0DF0154
:102EF0005A1C42D106236360002206920EAACDE935
:102F000004920DAA4BF4806303920DF13302CDE9D4
:102F100001322360636842460093284653460B9172
:102F2000FFF7D4FE0B99804647290D9908D1C81C9C
:102F300002DB6368994240DDA9F102095FFA89F971
:102F4000B9F1650F1FD84A46013904F150000D91BF
:102F5000FFF71BFF0E9A82461318012A236102DC39
:102F60002268D20701D5013323619DF83330002B4D
:102F70009BD02D2384F8433097E74729BCD1002B01
:102F8000BAD10123B7E7B9F1660F18D100296368F8
:102F90000BDD216113B92268D00702D501330B4440
:102FA00023614FF0000AA165DFE713B92268D20759
:102FB00001D50233F4E70123F2E74FF067090E9BD6
:102FC000994205DB23682161D807EAD54B1CE7E766
:102FD0000029CCBF0122C1F102021344E0E72368BB
:102FE0005A0507D42369424631462846B84701307E
:102FF0002BD164E7B9F1650F40F2DD80D4E912010D
:1030000000220023FDF7D0FC002833D001233146F5
:103010002846354AB84701303FF451AFDDE90D236A
:103020009A4202DB2368D8070FD5DDE90923314630
:103030002846B84701303FF442AF4FF0000804F192
:103040001A090E9B013B434509DC23689B0700F1ED
:103050000281E0680F9B9842B8BF184631E7012310
:103060004A4631462846B84701303FF428AF08F1B8
:103070000108E6E70D9B002B38DC0123314628468A
:10308000194AB84701303FF41AAFDDE90D23134365
:1030900002D12368D907D8D5DDE90923314628466E
:1030A000B84701303FF40BAF4FF0000904F11A0AA2
:1030B0000D9B5B424B4501DC0E9B94E7012352467E
:1030C00031462846B84701303FF4F9AE09F101090D
:1030D000EEE700BFFFFFEF7F10570008145700080E
:1030E0001C57000818570008205700080E9AA36DB7
:1030F0009A42A8BF1A46002A914637DC4FF0000BCF
:1031000029EAE97904F11A02D4F858A0AAEB0903D4
:103110005B4533DCDDE90D239A423BDB2368DA07AC
:1031200038D40E9A0D99A2EB0A03A2EB0109994536
:10313000A8BF9946B9F1000F34DC4FF0000829EA26
:10314000E97904F11A0ADDE90D239B1AA3EB0903BF
:1031500043457FF77AAF0123524631462846B847A8
:1031600001303FF4ACAE08F10108ECE713463146FC
:1031700042462846B8470130C0D1A0E60123314677
:1031800028460B92B84701303FF499AE0B9A0BF1E9
:10319000010BB9E73146DDE909232846B84701307C
:1031A000BFD18CE64B463146284608EB0A02B847A9
:1031B0000130C2D183E60E9A012A01DCDB0737D544
:1031C0000123424631462846B84701303FF477AEE6
:1031D000DDE9092331462846B84701303FF46FAE98
:1031E000D4E9120100220023FDF7DEFBD8B90E9BC3
:1031F00008F10102013B31462846B84701300ED1A3
:103200005DE601234A4631462846B84701303FF47F
:1032100056AE08F101080E9B013B4345F1DC5346D5
:1032200004F15002E0E64FF0000804F11A09F2E759
:1032300001234246DFE701234A4631462846B84784
:1032400001303FF43CAE08F10108E3680F995B1AC6
:103250004345F0DCFDE64FF0000804F11909F4E7FE
:103260002DE9F047164699468A680B69074693424E
:10327000B8BF1346336091F843200C46DDF8208038
:103280000AB1013333602368990642BF33680233C1
:103290003360256815F0060506D104F1190AE368C4
:1032A00032689B1AAB4228DC94F84320131E226834
:1032B00018BF012392062DD44946384604F1430233
:1032C000C047013020D02368E56803F00603042BD3
:1032D00018BF002532684FF00006A36808BFAD1A7A
:1032E000226908BF25EAE5759342C4BF9B1AED1811
:1032F0001A34B5421AD1002008E00123524649464B
:103300003846C047013003D14FF0FF30BDE8F087A9
:103310000135C4E73020E11881F843005A1C94F8C5
:1033200045102244023382F84310C5E701232246A8
:1033300049463846C0470130E6D00136D9E700009B
:103340002DE9FF470C46277E9146782F80469A4606
:103350000C9904F1430207D8622F0AD8002F00F01D
:10336000D980582F00F0A48004F1420684F84270FE
:103370003AE0A7F16303152BF6D801A050F823F02B
:10338000D9330008ED3300086933000869330008B9
:103390006933000869330008ED3300086933000819
:1033A000693300086933000869330008FB340008FA
:1033B0001D340008DD340008693300086933000853
:1033C0001D350008693300081D3400086933000802
:1033D00069330008E53400080B6804F142061A1D41
:1033E0001B680A6084F842300123A4E0256808685D
:1033F0002E0600F104030AD505680B60002D03DAE0
:103400002D236D4284F843300A235E4819E015F0FD
:10341000400F05680B6018BF2DB2EFE70B682568F9
:10342000181D0860280601D51D6802E06906FBD555
:103430001D886F2F0CBF08230A235248002184F8EF
:1034400043106668002EA8BF2168A660A4BF21F0C3
:10345000040121600DB9002E4DD01646B5FBF3F1E5
:1034600003FB1157C75D06F8017D2F46BB420D4691
:10347000F4D9082B0BD12368DF0708D523696168CD
:103480009942DEBF302306F8013C06F1FF36921B5D
:1034900022614B4621464046CDF800A003AAFFF723
:1034A000DFFE01304CD14FF0FF3004B0BDE8F087B3
:1034B000344884F845700E68236856F8045B1F068C
:1034C0000E6014D5D90744BF43F0200323601DB913
:1034D000236823F0200323601023AFE7236843F021
:1034E000200323607823284884F84530E3E75E060C
:1034F00048BFADB2E6E71646BBE70B6826681D1D60
:1035000060690D6035061B6801D5186002E0710620
:10351000FBD51880002316462361BAE70B681A1DF5
:103520000A601E6800213046626800F0C9FF08B1D9
:10353000801B606063682361002384F84330A8E740
:103540003246494640462369D0470130ABD0236814
:103550009B0713D4E068039B9842B8BF1846A4E7C2
:103560000123324649464046D04701309BD00135C1
:10357000E36803995B1AAB42F2DCEBE7002504F148
:103580001906F5E722570008335700080FB40A4B15
:1035900013B51C6824B1A36913B9204600F0E2FEFC
:1035A00005AB2046049AA168019301F003FC02B028
:1035B000BDE8104004B070470C0000202DE9F74F23
:1035C00003690C690746A342C0F28380013C00F105
:1035D000140501F1140805EB8403019358F8243015
:1035E00055F8242001339A42B2FBF3F64FEA840BDC
:1035F00008EB840932D34FF0000E4046AC46F24649
:1036000050F8042B93B206FB03E3120C4FEA134E5F
:1036100006FB02E29BB2AAEB0303DCF800A04FEA30
:10362000124E1FFA8AFA53441FFA82FADCF800207D
:103630008145CAEB124202EB23429BB243EA0243AA
:103640004FEA224A4CF8043BDAD255F80B302BB93A
:10365000019B043B9D421A462FD33C61384601F042
:10366000C5F9002825DB28464FF0000C013658F834
:10367000041BD0F800E08BB2ACEB03031FFA8EF210
:1036800013440A0CC2EB1E4202EB23429BB243EAF4
:103690000243C1454FEA224C40F8043BE7D255F8BB
:1036A000242005EB840322B9043B9D421A460AD329
:1036B0003C61304603B0BDE8F08F1268043B002A3D
:1036C000CBD1013CC6E71268043B002AF0D1013C93
:1036D000EBE70020EEE700002DE9F04F16461F460D
:1036E000446A99B00546CDE90467DDF8948074B961
:1036F000102000F0DDFE0246686220B9EA21AE4BE0
:10370000AE4801F0ADFDC0E901440460C4606B6ADD
:10371000196851B15A68012393404A608B6028466A
:1037200000F02AFF00226B6A1A603B1EAFBF002325
:10373000012223F000430593A8BFC8F80030DDF84C
:1037400014909F4BB8BFC8F8002033EA090319D181
:1037500042F20F73249A1360C9F31303334300F04A
:103760008085269B53B9974B22E0974B08930833EB
:10377000269A1360089819B0BDE8F08F914B089312
:103780000333F5E7DDE90434CDE90C34DDE90C0160
:1037900000220023FDF708F9804658B10123249A3E
:1037A0001360269B002B00F0598588481860431E43
:1037B0000893DFE716AB019317AB00932846DDE9CA
:1037C0000C2301F0BFF9C9F30A548246002C7ED0C5
:1037D000DDE90C010D9BA4F2FF34C3F3130343F0A6
:1037E0007F5141F44011CDF84C800022784BFCF71A
:1037F000BBFC6BA3D3E90023FCF76EFE6AA3D3E9FD
:103800000023FCF7B3FC064620460F46FCF7FAFD02
:1038100067A3D3E90023FCF75FFE02460B46304660
:103820003946FCF7A3FC06460F46FDF705F90022D2
:103830008146002330463946FDF7C0F848B1484676
:10384000FCF7E0FD32463B46FDF7AEF808B909F15A
:10385000FF39B9F1160F57D8DDE90C015D4B03EBC9
:10386000C903D3E90023FDF7A9F800284ED00023AF
:1038700009F1FF390F93169B1C1B631E099349BF67
:10388000C4F1010300230693002354BF0693099358
:10389000B9F1000F3CDB099BCDF838904B440993FC
:1038A00000230A93229B092B6CD8052BC4BF043B31
:1038B0002293229BC8BF0024A3F10203D8BF012496
:1038C000032B00F28B80DFE803F02D4F4D5BDDE929
:1038D00016431C4404F23243202BC3BFC3F1400300
:1038E00004F2124009FA03F3C3F12003C6BF26FA1B
:1038F00000F0184306FA03F0FCF774FD0123A1F170
:10390000F871013C139370E70123B3E70F90B2E71E
:10391000069BA3EB09030693C9F100030A93002356
:103920000E93BFE700230B93239B002B59DC4FF032
:10393000010B5B46CDF808B0CDF88CB00022686A68
:103940004260042202F114069E4241684FD9284683
:1039500000F0D2FD089000284DD102464FF4D571F9
:103960001D4BCDE60123DEE700230B93239B09EBE0
:10397000030B0BF10103012B0293B8BF0123DDE719
:103980000123F2E7012400230B9422934FF0FF3B25
:1039900000221223CDF808B02392CFE7AFF30080C6
:1039A00061436F63A787D23FB3C8608B288AC63F45
:1039B000FB799F501344D33F5157000868570008C4
:1039C0000000F07F4D5700084457000821570008B9
:1039D0000000F83FC0580008C757000801230B93A8
:1039E000D4E7DDF88CB05B46CDF808B0A6E701312E
:1039F00041605200A6E76B6A089A1A60029B0E2B80
:103A000000F2A880002C00F0A580B9F1000F34DD91
:103A10009A4A09F00F0302EBC30319F4807FD3E93C
:103A20000034CDE910344FEA291416D0DDE90C0139
:103A3000934B0327D3E90823FCF778FECDE9040173
:103A400004F00F048E4E54B9DDE91023DDE90401C2
:103A5000FCF76CFECDE9040129E00227F2E7E1075B
:103A600008D5DDE91001D6E90023FCF735FDCDE9E5
:103A70001001013764100836E5E700F0A580DDE9A4
:103A80000C01C9F100047D4B04F00F0203EBC203EB
:103A9000D3E90023FCF720FD02270023CDE9040130
:103AA000774E2411002C40F08480002BD2D10F9B44
:103AB000002B00F08B80DDE90434CDE91034DDE922
:103AC000100100226F4BFCF779FF00287ED0029B8B
:103AD000002B7BD0BBF1000F38DDDDE910010022A7
:103AE000694BFCF7F9FC5C46CDE9040109F1FF38AC
:103AF00001373846FCF786FCDDE90423FCF7ECFCD3
:103B00000022624BFCF732FBA1F15076CDE91001A7
:103B10001196002C5DD1DDE9040100225C4BFCF71D
:103B200023FB02460B46CDE904233346109AFCF7EB
:103B300063FF002840F09E82DDE90401109A06F13F
:103B40000043FCF73BFF002840F09282DDE90C3493
:103B5000CDE90434179B002BC0F25381B9F10E0F4D
:103B600000F34F81454B03EBC903D3E90034CDE9A2
:103B70000634239B002B80F2DB80029B002B00F39A
:103B8000D78040F07482DDE906010022404BFCF74B
:103B9000A3FCDDE90423FCF725FF029C2646002850
:103BA00040F04A823123089F09F1010907F8013BDF
:103BB00046E2E20705D5D6E90023FCF78DFC012398
:103BC0000137641008366DE7022770E7C846029C8B
:103BD0008FE70899294B214412910B9903EBC403F9
:103BE000DDE9106753E90223002955D00020294957
:103BF000FCF79CFD3B463246FCF7B6FACDE91001D6
:103C0000089FDDE90401FCF717FF0446FCF7FAFB07
:103C100002460B46DDE90401FCF7A6FA02460B4614
:103C20003034CDE90423DDE9102307F8014BFCF71C
:103C3000C5FE002874D1DDE9042300201149FCF7FA
:103C400093FADDE91023FCF7B9FE002840F0B680B6
:103C5000129B9F423FF47AAFDDE9100100220A4B2C
:103C6000FCF73AFC0022CDE91001DDE90401064B26
:103C7000FCF732FCCDE90401C3E700BFC0580008DF
:103C8000985800080000F03F0000244000001C404D
:103C9000000014400000E03F30463946FCF71CFCB1
:103CA000129BCDE91001089C1493DDE90401FCF797
:103CB000C3FE1590FCF7A6FB02460B46DDE90401A6
:103CC000FCF752FA159B0646303304F8013B129B71
:103CD0000F469C424FF0000224D1DDE91001B34BA6
:103CE000FCF744FA02460B4630463946FCF784FEA0
:103CF000002862D1DDE910230020AC49FCF734FA3A
:103D000002460B4630463946FCF758FE00283FF481
:103D10001DAF149F7B1E149317F8013C302BF8D075
:103D2000C1463AE0A24BFCF7D7FBCDE90401BCE762
:103D3000089FDDE90623DDE90401FCF7F7FCFCF749
:103D40007BFE0446FCF75EFBDDE90623FCF7C4FBC3
:103D500004F130060B460246DDE90401FCF704FAE3
:103D600007F8016B089E029BBE1BB3423AD1024684
:103D70000B46FCF7FBF902460B46CDE90223DDE9D1
:103D80000623FCF739FE58BBDDE90623DDE9020115
:103D9000FCF70AFE08B1E10722D42846514600F09C
:103DA000EBFB00233B70249B09F101001860269B6C
:103DB000002B3FF4DFAC1F60DCE427463B461F4688
:103DC00013F8012D392A07D1089A9A42F7D13022E7
:103DD000089908F101080A701A7801321A709FE7F1
:103DE000C846EBE70022724BFCF776FB02460B4617
:103DF000CDE9042300220023FCF7D6FD002898D04B
:103E0000CBE70B9A002A00F0CD80229A012A00F31A
:103E1000AF80139A002A00F0A78003F233430A9C74
:103E2000069F069A01211A440692099A28461A44C6
:103E3000099200F05BFC0646002F0CDD099B002B6D
:103E400009DDBB42A8BF3B46069AFF1AD21A06926A
:103E5000099AD31A09930A9BF3B10B9B002B00F02C
:103E6000A980002C10DD31462246284600F0F8FCDF
:103E7000524601460646284600F04EFC8046514612
:103E8000284600F079FBC2460A9B1A1B04D0514613
:103E9000284600F0E5FC82460121284600F026FC79
:103EA0000E9B0446002B40F387801A4601462846A5
:103EB00000F0D6FC229B0446012B40F380804FF09B
:103EC0000008236904EB8303186900F0C1FBC0F10B
:103ED0002000099B184410F01F0000F09280C0F1F0
:103EE0002003042B40F38A80C0F11C00069B07448A
:103EF00003440693099B03440993069B002B05DDAD
:103F000051461A46284600F005FD8246099B002BC3
:103F100005DD21461A46284600F0FCFC04460F9BAE
:103F2000002B70D02146504600F060FD00286ADA70
:103F3000002351460A22284600F040FB0B9B824694
:103F400009F1FF39002B00F09381314600230A224A
:103F5000284600F033FBBBF1000F064600F39380C8
:103F6000229B022B57DC8EE0169BC3F1360356E7EB
:103F7000029B5C1E0A9BA342B7BF0A9B1C1BE21A52
:103F80000E9BBEBF0A949B180E93029BB8BF0024E1
:103F9000002BBBBF069B029A069F9F1AACBF029BD9
:103FA00000233EE70A9C069F0B9E45E70000E03F8A
:103FB000000024400A9A6AE7229B012B19DC049B2B
:103FC000BBB9059BC3F313039BB9059B23F00043C7
:103FD0001B0D1B0583B14FF00108069B01330693AF
:103FE000099B013309930E9B002B7FF46AAF0120DC
:103FF0006FE74FF00008F6E79846F4E73FF47DAF2F
:1040000018461C3072E7029B002B36DC229B022BE9
:1040100033DDDDF808B0BBF1000F0DD121465B4662
:104020000522284600F0CAFA01460446504600F030
:10403000DDFC00283FF7B6AD239B089F6FEA03091C
:104040004FF000082146284600F096FA002E3FF473
:10405000A4AEB8F1000F05D0B04503D041462846C4
:1040600000F08AFA3146284600F086FA95E60024E8
:104070002646E1E7C146264694E50B9BDDF808B0ED
:10408000002B00F0FC80002F05DD31463A46284623
:1040900000F040FC0646B8F1000F5CD0284671687D
:1040A00000F02AFA074628B9024640F2EA217E4B80
:1040B000FFF726BB326906F10C01023292000C3088
:1040C00000F00CFA01223946284600F023FCB046E5
:1040D0000646089B01330293089B5B440A93049BAA
:1040E00003F001030993029B2146504603F1FF3B75
:1040F000FFF764FA034641463033049050460B9371
:1041000000F074FC324606902146284600F08AFCF6
:10411000C26807460B9B02BB0146504600F066FC96
:1041200002460B9B39462846CDE90B3200F024FAB3
:10413000229B0C9A029F43EA0201099B0B430B9BB3
:104140000DD1392B27D0069A002A01DD049B31338B
:104150008BF8003076E73046B9E70122E2E70699AE
:10416000002904DB229801430998014320D1002A49
:10417000EEDD514601222846029300F0CBFB21469A
:10418000824600F033FC0028029B02DCE0D1DA0713
:10419000DED5392BDAD139238BF800303B461F4668
:1041A00017F8012C013B392A50D001321A7049E727
:1041B000002A03DD392BEED00133C9E7029A0A99B0
:1041C00002F8013C8A422AD0514600230A2228469E
:1041D00000F0F4F9B04582464FF000034FF00A02B8
:1041E0004146284607D100F0E9F980460646029B81
:1041F0000133029377E700F0E1F93146804600236E
:104200000A22284600F0DAF90646F0E7BBF1000F73
:10421000CCBF5F4601274FF00008089A174451466B
:1042200001222846029300F075FB2146824600F0E9
:10423000DDFB0028B2DC02D1029BDB07AED43B469B
:104240001F4613F8012D302AFAD0FBE6089A9A424D
:10425000A5D1312309F101091370F3E6134BFFF7E0
:10426000A7BA269B002B7FF480AA114BFFF7A0BAB8
:10427000BBF1000F03DC229B022B3FF7CCAE089F63
:1042800021465046FFF79AF9089A00F1300307F8E3
:10429000013BBA1A9345B9DD514600230A2228464C
:1042A00000F08CF98246EBE7C7570008205700085A
:1042B00044570008002310B50446C0E90033C0E9A4
:1042C0000433836081814366C28183611946082279
:1042D0005C30FEF7F3FC054B24626362044BA3627F
:1042E000044BE362044B236310BD00BF355000084C
:1042F000575000088F500008B3500008014900F0E3
:10430000AFB800BFC953000870B568254A1E5543B1
:104310000E4605F1740100F0CBFC044640B10021CB
:10432000C0E900160C30A06005F16802FEF7C6FC7B
:10433000204670BD014800F0B8B800BF4002002020
:10434000014800F0B3B800BF40020020014800F06F
:10435000ACB800BF3B020020014800F0A7B800BF86
:104360003B02002010B50446FFF7F0FFA3691BB124
:10437000BDE81040FFF7F0BFC4E912332365134BCB
:10438000134A1B68A262A34208BF0123204608BF4C
:10439000A36100F01FF86060204600F01BF8A060E9
:1043A000204600F017F800220421E0606068FFF763
:1043B00081FF01220921A068FFF77CFF0222122160
:1043C000E068FFF777FF0123A361D1E70C570008EE
:1043D000FD420008F8B50746FFF7ACFF1E4B1E680C
:1043E000B36913B93046FFF7BDFF4836D6E901344B
:1043F000013B03D533680BB33668F7E7B4F90C50CB
:10440000D5B9164B04F15800E360656600F04CF82E
:10441000FFF796FF08222946C4E90155C4E904556F
:104420002560A56104F15C00FEF748FCC4E90D5568
:10443000C4E912552046F8BD6834D9E7042138464E
:10444000FFF762FF044630600028D5D1FFF778FF00
:104450000C233B60EEE700BF0C5700080100FFFF94
:104460002DE9F84306468846002700F14804D4E9C0
:104470000195B9F1010905D52468002CF7D138461A
:10448000BDE8F883AB89012B07D9B5F90E300133AC
:1044900003D029463046C04707436835E9E70000A6
:1044A0000048704760010020704770477047000067
:1044B000024B0146186800F0FBBB00BF0C00002057
:1044C000034610B5C9B202449342184601D10020F8
:1044D00003E0047801338C42F6D110BD0A449142C6
:1044E00000F1FF3300D1704710B511F8014B914234
:1044F00003F8014FF9D110BD70B5466A04460D4668
:1045000076B91020FFF7D4FF0246606220B9662119
:10451000174B184800F0A4FEC0E901660660C660AB
:10452000666AF36883B1636ADB6853F82500B8B93B
:10453000012101FA05F6721D2046920000F05EFB93
:1045400060B1C0E901560EE021220421204600F0AE
:1045500055FB636AF060DB68002BE4D1002070BD7E
:10456000026843F825200023C0E90333F7E700BFC2
:10457000515700083858000870B5466A05460C4681
:1045800076B91020FFF794FF0246686220B98A21AD
:10459000084B094800F064FEC0E901660660C66089
:1045A0003CB16B6A6268DB6853F82210216043F803
:1045B000224070BD51570008385800082DE9F041DD
:1045C00098460C4600230E69074601F11400056861
:1045D0000133A9B202FB01812D0C4FEA114C02FB01
:1045E00005C589B201EB05419E424FEA154840F8E6
:1045F000041BECDCB8F1000F22D0A368B34219DC35
:10460000616838460131FFF777FF054628B9024651
:10461000B5210D4B0D4800F023FE226904F10C0179
:10462000023292000C30FFF759FF21463846FFF75F
:10463000A3FF2C4604EB86030136C3F814802661E1
:104640002046BDE8F08100BFC75700083858000871
:10465000020C12040346CAB90304102013F07F4F62
:1046600004BF1B02083013F0704F04BF1B0104305D
:1046700013F0404F04BF9B000230002B05DB13F00A
:10468000804F00F1010008BF202070470020E5E7BF
:104690000368024613F007000BD0D90722D498070D
:1046A00049BF5B089B08012013605CBF02201360B8
:1046B000704799B209B910201B0C13F0FF0F04BF0B
:1046C0001B0A0830190704BF1B090430990704BFEF
:1046D0009B080230D90703D45B0800F1010003D026
:1046E00013607047002070472020704710B50C46BB
:1046F0000121FFF701FF024628B94FF4A071044BD6
:10470000044800F0ADFD01234461036110BD00BF0A
:10471000C7570008385800082DE9F04F14460A69B9
:1047200023690D469A42BEBF0B4625461C46D5F866
:1047300010A0D4F81090AB6869680AEB0907BB4277
:1047400085B0B8BF0131FFF7D7FE30B9024640F25D
:104750005D11414B414800F083FD00F114063346E2
:10476000002206EB870843451ED305F1140C04F123
:1047700014030CEB8A0C03EB89020292ACEB0502EA
:10478000153A22F00302043205F115018C4538BFB9
:1047900004220192029A03939A4208D8002F55DC12
:1047A000076105B0BDE8F08F43F8042BDBE7B3F8F1
:1047B00000A0BAF1000F20D0B146002205F1140E7E
:1047C0005EF8044BD9F800B0A1B21FFA8BFB0AFBCC
:1047D00001B11144D9F80020240C120C0AFB042466
:1047E00004EB114489B241EA0441F4454FEA144212
:1047F00049F8041BE4D801997250039A0433B2F8C3
:104800000290B9F1000F1FD0B6464FF0000A34688D
:1048100005F114010A88BEF802B0A4B209FB02B285
:10482000924444EA0A444EF8044B51F8044BBEF853
:104830000020240C09FB04248C4504EB1A444FEAA5
:10484000144AE7D8019AB4500436A3E758F8043D57
:10485000002BA5D1013FA1E7C75700083858000831
:104860002DE9F843154612F0030206460F4607D01D
:10487000254C013A002354F82220FFF79FFE0746FB
:10488000AD103DD0746A7CB91020FFF711FE0246CE
:10489000706228B94FF4D7711C4B1D4800F0E0FC42
:1048A000C0E901440460C460D6F82480D8F8084008
:1048B0004CB940F271213046FFF718FF002304463F
:1048C000C8F8080003604FF00009EB070AD5394625
:1048D00022463046FFF720FF804639463046FFF734
:1048E0004BFE47466D100BD0206838B92246214652
:1048F0003046FFF711FF2060C0F800900446E4E75F
:104900003846BDE8F88300BF8859000851570008B1
:10491000385800082DE9F0470C46074691462369B0
:10492000496803EB6218A3684FEA621A08F10106AE
:10493000B3420BDB3846FFF7DFFD054648B90246B8
:1049400040F2D911274B284800F08AFC01315B0066
:10495000EEE7002300F1140100F110021846534560
:1049600033DB20692AEAEA7A04F1140319F01F09FB
:1049700001EB8A0103EB800C2BD08A460022C9F19F
:10498000200E186800FA09F002434AF8042B53F885
:10499000042B9C4522FA0EF2F3D8ACEB0403153B32
:1049A00023F00303043304F11500844538BF0423C6
:1049B000CA500AB108F10206013E384621462E616E
:1049C000FFF7DAFD2846BDE8F08742F8040F01330F
:1049D000C5E7043953F8042B9C4541F8042FF9D856
:1049E000EAE700BFC75700083858000803460A69BD
:1049F000006930B5801A0DD11433143103EB8204F1
:104A000001EB820154F8045D51F8042D954202D067
:104A100004D3012030BDA342F4D3FBE74FF0FF30B5
:104A2000F8E700002DE9F84F0C46064611462046EF
:104A30009246FFF7DBFF051E11D129463046FFF7EE
:104A40005BFD024628B940F232213C4B3C4800F065
:104A500007FC0123C0E904351046BDE8F88FA4BF68
:104A60005346A2463046DAF80410A6BF1C4600257D
:104A70000125FFF741FD024618B94FF410712F4B85
:104A8000E4E700F11408DAF81070C5604FF0000C8C
:104A90000AF114050AF11000C246266904F114094E
:104AA00005EB870E09EB860650F804BF59F8043B66
:104AB0001FFA8BF161441FFA83FC1B0CA1EB0C0164
:104AC000C3EB1B4303EB214389B24FEA234C4E4512
:104AD00041EA03434AF8043BE6D8331B153B23F075
:104AE000030315340433A64238BF04231D44434452
:104AF0001E462C4674450ED30EF10301491B21F0CE
:104B00000301033DAE4538BF0021194451F8043D6F
:104B10008BB11761A0E754F8048B1FFA88F1614448
:104B2000081400EB184089B241EA00414FEA204CDA
:104B300046F8041BDEE7013FE8E700BFC75700085F
:104B4000385800082DE9F3410121DDE90876904647
:104B50001D46FFF7D1FC044630B9024640F20A3147
:104B6000244B254800F07CFBC5F31303C5F30A551D
:104B70002DBB0193B8F1000326D068460093FFF7E0
:104B800087FD0099F0B1019AC0F1200302FA03F306
:104B90000B43C24063610192019B002B14BF0221B1
:104BA0000121A3612161C5B1A5F233450544C0F1DE
:104BB00035003D603060204602B0BDE8F08143F42E
:104BC0008013D6E76161E7E701A8FFF761FD0121E6
:104BD000019B216163612030E5E704EB8103A0F2D2
:104BE000324038601869FFF733FDC0EB4111316086
:104BF000E1E700BFC75700083858000838B502FB86
:104C000001F5294600F054F8044618B12A4600215F
:104C1000FEF754F8204638BD38B50546002943D084
:104C200051F8043C0C1F002BB8BFE41800F0A2FCA4
:104C30001E4A1368104633B9636014602846BDE805
:104C4000384000F09DBCA3420AD921686218934203
:104C500001BF1A685B685218226063600460EDE768
:104C60001A465B680BB1A342FAD911685018A042EA
:104C70000BD120680144501883421160DED11868BE
:104C80005B68014411605360D8E702D90C232B60A4
:104C9000D4E7206821188B4201BF19685B680918A6
:104CA000216063605460C9E738BD00BFFC0100208B
:104CB000F8B5CD1C25F0030508350C2D38BF0C25A3
:104CC000002D064601DBA94203D90C2333600020E6
:104CD000F8BD00F04FFC21490A6814469CB9204FEA
:104CE0003B6823B92146304600F094F938602946E4
:104CF000304600F08FF9431C23D10C23304633603B
:104D000000F03EFCE3E723685B1B17D40B2B03D9B1
:104D100023601C44256004E06368A2420CBF0B6062
:104D20005360304600F02CFC04F10B00231D20F0F2
:104D30000700C21ACCD01B1AA350C9E722466468E8
:104D4000CCE7C41C24F00304A042E3D0211A30466F
:104D500000F060F90130DDD1CFE700BFFC01002099
:104D600000020020936810B4013B002B936007DA27
:104D70009469A34201DB0A2902D110BC00F09EB95C
:104D80001368581C10601970084610BC7047F8B5BD
:104D900006460F461446D518AC4201D1002007E064
:104DA0003A46304614F8011BFFF7DCFF431CF3D1F1
:104DB000F8BD00002DE9F04F0D4614469846064612
:104DC0009DB018B183690BB9FFF7CCFA894B9D42AE
:104DD0001BD175686B6ED90705D4AB899A0502D4CF
:104DE000A86DFFF762FBAB891B0701D52B69EBB9F7
:104DF0002946304600F0C6F9C0B16B6EDC070ED50F
:104E00004FF0FF301DB0BDE8F08F7B4B9D4201D1CC
:104E1000B568DFE7794B9D4208BFF568DAE7AB89F3
:104E20009805EDD4A86DFFF741FBE9E7002309934E
:104E300020238DF8293030234FF00109CDF80C8064
:104E4000DFF8BC818DF82A3023469A4613F8012BEF
:104E50000AB1252AF9D1BAEB040B0BD05B462246E6
:104E600029463046FFF793FF013000F0AA80099AE7
:104E70005A4409929AF80030002B00F0A2800023D7
:104E80004FF0FF32CDE905230AF1010A049307939D
:104E90008DF853301A935446052214F8011B5848D4
:104EA000FFF70EFB049AD8B9D10644BF20238DF832
:104EB0005330130744BF2B238DF853309AF800303A
:104EC0002A2B15D0544600204FF00A0C079A214691
:104ED00011F8013B303B092B4ED9B0B1079214E0D9
:104EE000A0EB080309FA03F31343A2460493D2E7A5
:104EF000039B191D1B680391002BBBBF5B4242F053
:104F0000020207930793B8BF049223782E2B0CD18B
:104F100063782A2B35D1039B02341A1D1B68039238
:104F2000002BB8BF4FF0FF330593DFF8E4A0032256
:104F300050462178FFF7C4FA40B14023A0EB0A00A5
:104F400003FA00F0049B01340343049314F8011B9B
:104F500006222C488DF82810FFF7B2FA00283FD01F
:104F6000294B1BBB039B073323F007030833039331
:104F7000099B3B44099367E70C4601200CFB023276
:104F8000A5E700234FF00A0C19460134059320468B
:104F900010F8012B303A092A03D9002BC5D005910E
:104FA000C3E7044601230CFB0121F0E703AB0093A8
:104FB0002A463046154B04A9FDF726FF0746781C04
:104FC000D6D16B6ED90705D4AB899A0502D4A86DEA
:104FD000FFF76CFAAB895B063FF512AF099811E752
:104FE00003AB00932A463046084B04A9FEF7A8F904
:104FF000E4E700BFF857000818580008D857000821
:10500000945900089E590008092E00088F4D000889
:105010009A59000838B50023054D044608462B6010
:10502000FCF708F9431C02D12B6803B1236038BD9B
:105030004402002010B50C46B1F90E1000F0A6FA9B
:105040000028ABBF636DA3891B1823F48053ACBF4A
:105050006365A38110BD2DE9F0411F468B8905468C
:10506000DB050C46164605D502230022B1F90E10C9
:1050700000F0F8F9A389324623F48053A38128462F
:105080003B46B4F90E10BDE8F04100F069B810B528
:105090000C46B1F90E1000F0E5F9431CA38915BFC9
:1050A000606523F4805343F48053A38118BFA38128
:1050B00010BDB1F90E1000F0F1B80000F8B50E46C1
:1050C0001446054618B183690BB9FFF74BF9214B1C
:1050D0009C422BD16C68A369A360A3891A072FD5C2
:1050E00023696BB323692068F6B2C01A6369374637
:1050F000834204DC2146284600F066F930BBA368F1
:105100000130013BA36023685A1C22601E70636952
:10511000834204D0A389DB0706D50A2E04D1214699
:10512000284600F051F988B93846F8BD0A4B9C4230
:1051300001D1AC68CFE7094B9C4208BFEC68CAE7D5
:105140002146284600F01EF80028CBD04FF0FF374C
:10515000EAE700BFF857000818580008D8570008B9
:1051600038B50446084611460022054D2A601A4605
:10517000FCF713F8431C02D12B6803B1236038BD40
:1051800044020020324B70B51D6806460C4625B11E
:10519000AB6913B92846FFF7E5F82E4B9C420FD1B7
:1051A0006C68A389B4F90C2019072CD4DD0611D43E
:1051B0000923336042F040034FF0FF30A3813EE00B
:1051C000254B9C4201D1AC68EBE7244B9C4208BFC5
:1051D000EC68E6E7580712D5616B41B104F144036E
:1051E000994202D03046FFF717FD00236363A3897D
:1051F00023F02403A3810023636023692360A38930
:1052000043F00803A38123694BB9A38903F42073F6
:10521000B3F5007F03D02146304600F059F9A0894C
:10522000B4F90C2010F001030AD00023A3606369D5
:105230005B42A361236943B910F08000BAD170BD0D
:10524000810758BF6369A360F4E70020F7E700BF58
:105250000C000020F857000818580008D85700081C
:105260001FB514461A46094B05461B68D8684CB151
:10527000074BCDE9013400912B46064900F0E0F8D8
:1052800000F0A3F9044B1C46F3E700BF0C0000201C
:10529000A5590008B2590008E059000838B50023A4
:1052A000054D044608462B60FBF793FF431C02D1D3
:1052B0002B6803B1236038BD440200208A892DE9A0
:1052C000F041054610070C4658D44B68002B05DC0E
:1052D0000B6C002B02DC0020BDE8F081E66A002E9A
:1052E000F9D0002312F480522F682B6032D0606D09
:1052F000A3895A0705D56368C01A636B0BB1236C89
:10530000C01A00230246E66A2846216AB047431CB9
:10531000A38906D129681D292CD82A4ACA40D60754
:1053200028D5002262602269D904226004D5421C7B
:1053300001D12B6803B96065616B2F600029CAD069
:1053400004F14403994202D02846FFF765FC00208F
:105350006063C1E7216A01232846B047411CC7D1D9
:105360002B68002BC4D01D2B01D0162B01D12F6030
:10537000B1E7A38943F04003A381ADE70F69002F94
:10538000A9D0930718BF00230E6808BF4B69A6EB8E
:1053900007080F608B60B8F1000F9CDD43463A466A
:1053A0002846216AA66AB047002806DCA3894FF088
:1053B000FF3043F04003A3818EE70744A8EB0008C9
:1053C000E9E700BF0100402038B50B6905460C46EF
:1053D00013B90025284638BD18B183690BB9FEF70B
:1053E000C1FF144B9C421BD16C68B4F90C30002BEC
:1053F000EFD0626ED00704D4990502D4A06DFFF7F8
:1054000054F828462146FFF759FF636E0546DA0730
:10541000E0D4A3899B05DDD4A06DFFF747F8D9E759
:10542000054B9C4201D1AC68DFE7044B9C4208BFAE
:10543000EC68DAE7F857000818580008D857000851
:105440000EB403B5014603AB054853F8042B0068BE
:105450000193FFF7AFFC02B05DF804EB03B07047B7
:105460000C00002038B50446084611460022054DC0
:105470002A601A46FBF7D1FE431C02D12B6803B108
:10548000236038BD4402002070B50E46B1F90E10FD
:10549000144600291D4696B007DA00232B60B38915
:1054A0001A0610D44FF480630EE06A4600F094F8B8
:1054B0000028F2DB019A02F47042A2F500535A422E
:1054C0005A412A60EEE740230020236016B070BDE9
:1054D0008B8973B59D0706460C4607D504F1470333
:1054E000236023610123636102B070BD6A4601AB92
:1054F000FFF7CAFF009905463046FFF7D9FB48B9C8
:10550000B4F90C309A05EFD423F0030343F00203FF
:10551000A381E3E70D4BB362A389206043F08003CE
:10552000A381009B20616361019B5BB13046B4F9AC
:105530000E1000F063F828B1A38923F0030343F0B1
:105540000103A381A0890543A581CDE7FD420008A1
:1055500082B001B901A942B14BB113780B60127846
:10556000101E18BF012002B070471046FBE76FF015
:105570000100F8E70148FEF798BF00BF3C02002099
:105580000148FEF793BF00BF3C02002038B5044637
:10559000084611460022054D2A601A46FBF7E0FD39
:1055A000431C02D12B6803B1236038BD44020020A4
:1055B0000346084641B1FF2A04D98A224FF0FF3042
:1055C0001A60704701200A707047062008B500F085
:1055D0004DF80120FBF7BAFD38B50023064D04460F
:1055E000084611462B60FBF7FFFD431C02D12B68D8
:1055F00003B1236038BD00BF4402002038B500234A
:10560000054D044608462B60FBF7FDFD431C02D107
:105610002B6803B1236038BD440200201F2938B530
:1056200004460D4604D9162303604FF0FF3038BD01
:10563000426C12B152F821304BB9204600F030F8DC
:105640002A4601462046BDE8384000F017B8012B35
:105650000AD0591C03D1162303600120E7E7002478
:10566000284642F8254098470020E0E7024B0146D3
:105670001868FFF7D3BF00BF0C00002038B5002327
:10568000064D0446084611462B60FBF74FFD431CB0
:1056900002D12B6803B1236038BD00BF4402002053
:1056A000FBF73DBDF8B500BFF8BC08BC9E4670478F
:0C56B000F8B500BFF8BC08BC9E4670476F
:1056C0002534640A00000000252E32662563430A53
:1056D0000000000002030405060708090A0B0C0D70
:1056E0000E0F101002030405060708090A0B0C0D23
:1056F0000E0F101000000000000000000102030463
:105700000607080900000000010203041000002041
:10571000494E4600696E66004E414E006E616E0055
:105720003000303132333435363738394142434432
:1057300045460030313233343536373839616263AB
:1057400064656600496E66696E697479004E614EE3
:10575000005245454E54206D616C6C6F632073752B
:1057600063636565646564002F6275696C642F67A7
:105770006E752D746F6F6C732D666F722D73746DF3
:1057800033325F392D323032302D71322D757064E5
:105790006174652E32303230313030312D31363255
:1057A000312F7372632F6E65776C69622F6E657728
:1057B0006C69622F6C6962632F7374646C69622F09
:1057C00064746F612E630042616C6C6F632073754B
:1057D000636365656465640000000000000000000C
:1057E00000000000000000000000000000000000B9
:1057F00000000000000000000000000000000000A9
:105800000000000000000000000000000000000098
:105810000000000000000000000000000000000088
:105820000000000000000000000000000000000078
:1058300000000000000000002F6275696C642F6793
:105840006E752D746F6F6C732D666F722D73746D22
:1058500033325F392D323032302D71322D75706414
:105860006174652E32303230313030312D31363284
:10587000312F7372632F6E65776C69622F6E657757
:105880006C69622F6C6962632F7374646C69622F38
:105890006D707265632E63000080E03779C3414309
:1058A000176E05B5B5B89346F5F93FE9034F384D86
:1058B000321D30F94877825A3CBF737FDD4F157532
:1058C000000000000000F03F000000000000244045
:1058D00000000000000059400000000000408F4020
:1058E000000000000088C34000000000006AF8408B
:1058F0000000000080842E4100000000D0126341AF
:105900000000000084D797410000000065CDCD4124
:10591000000000205FA00242000000E87648374205
:10592000000000A2941A6D42000040E59C30A242A3
:105930000000901EC4BCD64200003426F56B0C4318
:105940000080E03779C3414300A0D88557347643BF
:1059500000C84E676DC1AB43003D9160E458E14320
:10596000408CB5781DAF154450EFE2D6E41A4B4495
:1059700092D54D06CFF08044F64AE1C7022DB544DA
:10598000B49DD9794378EA4405000000190000006D
:105990007D000000232D302B2000686C4C006566D4
:1059A00067454647002C2066756E6374696F6E3AD2
:1059B0002000617373657274696F6E2022257322F3
:1059C000206661696C65643A2066696C65202225F1
:1059D00073222C206C696E65202564257325730A5B
:1059E000004300504F534958002E00002020202033
:1059F000202020202028282828282020202020207F
:105A0000202020202020202020202020881010105E
:105A100010101010101010101010101004040404B6
:105A2000040404040404101010101010104141412B
:105A30004141410101010101010101010101010196
:105A40000101010101010110101010101042424229
:105A50004242420202020202020202020202020266
:105A600002020202020202101010102000000000C8
:105A70000000000000000000000000000000000026
:105A80000000000000000000000000000000000016
:105A90000000000000000000000000000000000006
:105AA00000000000000000000000000000000000F6
:105AB00000000000000000000000000000000000E6
:105AC00000000000000000000000000000000000D6
:105AD00000000000000000000000000000000000C6
